:020000040800F2
:100000000050002095140008E9110008F1110008C3
:10001000F911000801120008091200080000000090
:1000200000000000000000000000000011120008A5
:100030001D120008000000002912000835120008F7
:10004000DD140008DD140008DD140008DD140008CC
:10005000411200084D120008DD140008DD140008EC
:10006000DD140008DD140008DD1400085912000832
:100070006D12000881120008DD140008DD1400086C
:1000800095120008A9120008BD120008DD1400082E
:10009000DD140008DD140008DD140008DD1400087C
:1000A000DD140008DD140008DD140008DD1400086C
:1000B000DD140008DD140008DD140008D11200086A
:1000C000E5120008DD140008DD140008F91200082C
:1000D000DD1400080D130008DD140008DD1400080D
:1000E000DD140008DD140008DD1400080000000025
:1000F0000000000000000000000000000000000000
:0C01000000000000000000005FF808F1A3
:10010C0010B5054C237833B9044B13B10448AFF345
:10011C0000800123237010BD780000200000000037
:10012C00207D000808B5034B1BB103490348AFF30E
:10013C00008008BD000000007C000020207D00082D
:10014C00034613F8012B002AFBD1181A013870470B
:10015C0080B584B000AF3B1D00221A605A609A60D3
:10016C003D4B3E4A1A603C4B4FF480729A603A4BBE
:10017C0000221A73384B00221A75374B4FF4602249
:10018C00DA61354B00225A60334B06221A61324831
:10019C0001F026FA0346002B01D000F086FC002368
:1001AC007B600123BB600123FB603B1D19462A4881
:1001BC0001F0A6FC0346002B01D000F076FC0123D5
:1001CC007B600223BB603B1D1946234801F098FC61
:1001DC000346002B01D000F068FC02237B60032354
:1001EC00BB603B1D19461C4801F08AFC0346002BE2
:1001FC0001D000F05AFC03237B600423BB603B1D41
:10020C001946154801F07CFC0346002B01D000F088
:10021C004CFC10237B600523BB600423FB603B1D5F
:10022C0019460D4801F06CFC0346002B01D000F080
:10023C003CFC11237B600623BB603B1D1946064822
:10024C0001F05EFC0346002B01D000F02EFC00BF39
:10025C001037BD4680BD00BF940000200024014033
:10026C0080B588B000AF786007F1100300221A60E7
:10027C005A609A60DA607B681B682C4A934251D1B1
:10028C002B4B9B692A4A43F400739361284B9B695F
:10029C0003F40073FB60FB68254B9B69244A43F015
:1002AC0004039361224B9B6903F00403BB60BB689E
:1002BC000F233B6103237B6107F1100319461D4893
:1002CC0002F016FC1C4B1D4A1A601B4B00225A6094
:1002DC00194B00229A60184B8022DA60164B4FF4AF
:1002EC0080721A61144B4FF480625A61124B0022D7
:1002FC009A61114B0022DA610F4801F0CDFF0346E1
:10030C00002B01D000F0D1FB7B680B4A1A620A4A21
:10031C007B68536200220021122001F07AFF122028
:10032C0001F093FF00BF2037BD4680BD0024014083
:10033C000010024000080140C400002008000240E8
:10034C0080B582B000AF1C4B5B691B4A43F00103C4
:10035C005361194B5B6903F001037B607B680022DE
:10036C0000210B2001F055FF0B2001F06EFF002245
:10037C0000210C2001F04DFF0C2001F066FF002243
:10038C0000210D2001F045FF0D2001F05EFF002241
:10039C000021102001F03DFF102001F056FF00223B
:1003AC000021112001F035FF112001F04EFF00BF9C
:1003BC000837BD4680BD00BF0010024080B588B034
:1003CC0000AF07F1100300221A605A609A60DA60DD
:1003DC004A4B9B69494A43F010039361474B9B6915
:1003EC0003F01003FB60FB68444B9B69434A43F0EA
:1003FC0020039361414B9B6903F02003BB60BB68F6
:10040C003E4B9B693D4A43F0040393613B4B9B6914
:10041C0003F004037B607B68384B9B69374A43F0DD
:10042C0008039361354B9B6903F008033B603B6801
:10043C0000224FF40051324802F0DEFC012203216D
:10044C00304802F0D9FC00224FF480712D4802F0A4
:10045C00D3FC4FF400533B6101237B610023BB6150
:10046C000223FB6107F110031946254802F040FBFB
:10047C0010233B6100237B610123BB6107F1100357
:10048C001946214802F034FB03233B6101237B61B5
:10049C000023BB610323FB6107F1100319461948C4
:1004AC0002F026FB4FF480733B6100237B61002339
:1004BC00BB6107F110031946134802F019FB18230E
:1004CC003B6100237B610123BB6107F110031946DB
:1004DC000C4802F00DFB4FF480733B6111237B61E0
:1004EC000123BB610223FB6107F110031946054888
:1004FC0002F0FEFA00BF2037BD4680BD001002405E
:10050C0000100140000C01400008014080B500AF14
:10051C00124B134A1A60114B124A5A600F4B0022AD
:10052C009A600E4B0022DA600C4B4FF480421A6139
:10053C000A4B00225A61094B00229A61074B002298
:10054C00DA61064B00221A62044802F06DFC034685
:10055C00002B01D000F0A9FA00BF80BD08010020DB
:10056C0000540040801A060080B588B000AF786057
:10057C0007F1100300221A605A609A60DA607B68F7
:10058C001B68434A93427FD1424B9B69414A43F0DB
:10059C00080393613F4B9B6903F00803FB60FB6806
:1005AC00C0233B6112237B610323FB6107F1100322
:1005BC001946394802F09CFA364BDB69354A43F44C
:1005CC000013D361334BDB6903F40013BB60BB68CE
:1005DC00324B334A1A60314B00225A602F4B0022A7
:1005EC009A602E4B8022DA602C4B00221A612B4B26
:1005FC0000225A61294B00229A61284B0022DA61B1
:10060C00264801F049FE0346002B01D000F04DFABC
:10061C007B68224A9A63214A7B685362214B224AA7
:10062C001A60204B10225A601E4B00229A601D4B00
:10063C008022DA601B4B00221A611A4B00225A618D
:10064C00184B00229A61174B0022DA61154801F011
:10065C0023FE0346002B01D000F027FA7B68114AD9
:10066C005A63104A7B685362002200211F2001F05C
:10067C00D0FD1F2001F0E9FD00220021202001F017
:10068C00C8FD202001F0E1FD00BF2037BD4680BD34
:10069C000054004000100240000C01405C0100209E
:1006AC0080000240A00100206C00024080B586B0A2
:1006BC0002AF7860084611461A4603467B800B460B
:1006CC007B7013463B707B783B733B787B737B88EA
:1006DC005B0099B207F10C024FF0FF330093022339
:1006EC00034802F0F9FC00BF1037BD4680BD00BFC7
:1006FC00080100202DE9F0438BB002AFF8607B605D
:10070C000B467B8113467B726B461E4697F8403036
:10071C00591C4B1EBB610A460023904699464FF06C
:10072C0000024FF000034FEAC90343EA58734FEA43
:10073C00C8020A46002314461D464FF000024FF033
:10074C000003EB0043EA5473E2000B460733DB086B
:10075C00DB00ADEB030D02AB00337B617B697A7A76
:10076C001A700023FB770AE0FB7F7A681A44FB7F40
:10077C00013311787A69D154FB7F0133FB77FA7F0F
:10078C0097F840309A42EFD37B895B0099B297F887
:10079C0040309BB201339BB24FF0FF3200927A692A
:1007AC00044802F099FCB54600BF2437BD46BDE8AD
:1007BC00F08300BF0801002090B58BB004AF7860C7
:1007CC007B684D4A934240F093800023FB7567E0B1
:1007DC00F87DFA7DF97D494C0B46DB000B445B0040
:1007EC00234410331B781C46454B33F8103098B219
:1007FC0042491346DB0013442344024621F81320DC
:10080C00FA7D3E491346DB0013445B000B44103366
:10081C001B7801335A4203F0070302F0070258BF5A
:10082C005342FA7DD8B235491346DB0013445B00C2
:10083C000B44103302461A7000233B610023FB73F8
:10084C000FE0FA7DF97B2D481346DB0013440B4473
:10085C0030F813301A463B6913443B61FB7B013380
:10086C00FB73FB7B072BECD93B69DA08FB7D91B260
:10087C00244A22F81310FB7D224A32F813309BB223
:10088C00A3F50063002BB8BF5B42462B05DCFB7D58
:10089C001C4A4FF4006122F81310FB7D0133FB75E9
:1008AC00FB7D032B94D9174B1B889BB2B3F5006FC0
:1008BC0002D1154B01221A70134B1B78012B17D147
:1008CC00104B1B889BB218460E4B5B889BB21A468A
:1008DC000C4B9B889BB219460A4BDB889BB202934C
:1008EC00019100920346094A3221094806F04EFD57
:1008FC0000BF1C37BD4690BD94000020280200208C
:10090C00180200202002002070020020387D000810
:10091C00E401002080B582B002AF00F0DBFD01F0F5
:10092C00AEFC00F067F8FFF749FDFFF709FDFFF794
:10093C00EDFDFFF70DFC00F031FB00F027FD482228
:10094C000021274806F058FD264801F0D3FA254B24
:10095C001B689A68234B1B6842F004029A6000BF24
:10096C00204B1B689B6803F00403002BF8D106F0A6
:10097C0081FB002300930C231B4A03212D2006F03E
:10098C00BBFC00F09FFA00F0C7F900F0B7FA0020AA
:10099C0000F010FA06F0B0FB04221449114800F0E4
:1009AC00F7FE1348FFF7CCFB0346DBB219461048A1
:1009BC0000F024FA0E4B1B781A46002300930C23EC
:1009CC000021002006F098FC094B5B781A460023A6
:1009DC0000930C230121002006F08EFCDCE700BF05
:1009EC002802002094000020447D000818020020FA
:1009FC00E401002080B594B000AF07F12803282251
:100A0C000021184606F0F8FC07F1140300221A60C6
:100A1C005A609A60DA601A613B1D00221A605A60B3
:100A2C009A60DA600123BB624FF48033FB620023CF
:100A3C003B630123BB6302237B644FF48033BB64B1
:100A4C004FF4C013FB6407F12803184604F096FB1F
:100A5C000346002B01D000F028F80F237B61022302
:100A6C00BB610023FB614FF480633B6200237B621C
:100A7C0007F114030221184604F002FE0346002B72
:100A8C0001D000F012F802237B604FF44043FB606E
:100A9C003B1D184604F082FF0346002B01D000F0EA
:100AAC0004F800BF5037BD4680BD80B400AF72B6AD
:100ABC0000BF00BFFDE7000080B586B002AF034663
:100ACC00FB7107F10F02F91D4FF0FF330093012367
:100ADC00034805F053F9FB7B18461037BD4680BD23
:100AEC007402002080B584B000AF0346FB71002275
:100AFC0002210B4802F080F9FB791846FFF7DCFF66
:100B0C00FF20FFF7D9FF0346FB73012202210448A3
:100B1C0002F072F9FB7B18461037BD4680BD00BF52
:100B2C00000C014090B585B000AF03463960FB71F5
:100B3C001346BB7100220221104802F05DF9FB79CB
:100B4C001846FFF7B9FF0023FB730AE0FB7B3A68FA
:100B5C00D418FF20FFF7B0FF03462370FB7B013353
:100B6C00FB73FA7BBB799A42F0D301220221034832
:100B7C0002F042F900BF1437BD4690BD000C014095
:100B8C0080B582B000AF03460A46FB711346BB71B9
:100B9C00002202210B4802F02FF9FB7943F02003CD
:100BAC00DBB21846FFF788FFBB791846FFF784FFC6
:100BBC0001220221034802F01FF900BF0837BD468D
:100BCC0080BD00BF000C014080B584B000AF03466F
:100BDC003960FB711346BB7100220221114802F0EF
:100BEC000BF9FB7943F02003DBB21846FFF764FFE7
:100BFC000023FB7309E0FB7B3A6813441B7818460F
:100C0C00FFF75AFFFB7B0133FB73FA7BBB799A42EC
:100C1C00F1D301220221034802F0EEF800BF103795
:100C2C00BD4680BD000C014080B582B000AF0022F3
:100C3C000221094802F0E0F80720FFF73DFF0346C8
:100C4C00FB7101220221044802F0D6F8FB79184608
:100C5C000837BD4680BD00BF000C014080B584B094
:100C6C0000AF0346FB71FB7903F07003FB71FFF7D8
:100C7C00DBFF0346FB73002202210C4802F0BCF898
:100C8C002720FFF719FFFA7BFB791343DBB21846D9
:100C9C00FFF712FF01220221044802F0ADF8FFF722
:100CAC00C3FF034618461037BD4680BD000C0140FB
:100CBC0080B582B000AF78600B46FB70FB78052BDB
:100CCC0028BF0523FB70FB781A4679681020FFF7C4
:100CDC007BFF00BF0837BD4680BD80B582B000AF3A
:100CEC0003463960FB711346BB71BB79052B28BFDA
:100CFC000523BB71FB79052B28BF0523FB71FB7901
:100D0C000A33DBB2BA7939681846FFF75DFF00BFCA
:100D1C000837BD4680BD000080B584B000AF224AC4
:100D2C0007F1080392E803001860043319703B467E
:100D3C0000221A601A7107F10803052219461020C7
:100D4C00FFF742FF3B46052219461020FFF7EAFE4B
:100D5C000023FB730EE0FB7B10333B4413F8082C91
:100D6C00FB7B10333B4413F8103C9A4206D1FB7BBF
:100D7C000133FB73FB7B042BEDD900E000BFFB7B45
:100D8C00052B0BD0094B196864231A22084805F06F
:100D9C00ACFB4FF4FA6000F0FFFBCCE700BF00BFE8
:100DAC001037BD4680BD00BF687D000800000020E4
:100DBC005803002080B584B000AF0346FB710023BC
:100DCC00FB730020FFF78EFE0346FB73FB79002BB1
:100DDC0004D1FB7B23F00103FB7306E0FB79012BB1
:100DEC0003D1FB7B43F00103FB73FB7B1946002013
:100DFC00FFF7C6FE00BF1037BD4680BD80B584B07E
:100E0C0000AF78600B46FB7000237B730023FB81E3
:100E1C0000220221294801F0EFFFE120FFF74CFEF0
:100E2C0001220221254801F0E7FF0022012123487D
:100E3C0001F0E2FFFB781A467968A020FFF7C4FEA8
:100E4C00012201211D4801F0D7FF10E0012000F024
:100E5C00A3FBFB895A1CFA81B3F5FA7F07D100F08A
:100E6C0031F800F04BF80020FFF7A4FF05E0144B1D
:100E7C009B6803F01003102BE8D00720FFF732FE1D
:100E8C0003467B737B7B19460720FFF779FE7B7B40
:100E9C0003F01003002B05D0FF21E120FFF770FEBB
:100EAC00102307E07B7B03F02003002B01D02023D1
:100EBC0000E0FF2318461037BD4680BD000C0140F2
:100ECC000008014080B500AF01220121094801F062
:100EDC0093FF01221021084801F08EFF002201210E
:100EEC00044801F089FF01220221024801F084FF2D
:100EFC0000BF80BD000C01400008014080B582B0ED
:100F0C0000AF244A3B4692E8030018600433197082
:100F1C0001220121204801F06FFF7020FFF79EFE97
:100F2C0001211C20FFF72CFE07211D20FFF728FEB6
:100F3C001C20FFF7D7FD1D20FFF7D4FD0A21002050
:100F4C00FFF71EFE01210120FFF71AFE01210220EE
:100F5C00FFF716FE03210320FFF712FEFF210420EA
:100F6C00FFF70EFE3C210520FFF70AFE2621062086
:100F7C00FFF706FE3B4605211846FFF799FE3B4658
:100F8C00052219460020FFF7A8FE00BF0837BD4612
:100F9C0080BD00BF707D0008000C014080B500AF23
:100FAC00174B184A1A60164B4FF482725A60144B46
:100FBC0000229A60124B0022DA60114B00221A6157
:100FCC000F4B00225A610E4B4FF400729A610C4B7E
:100FDC001822DA610A4B00221A62094B00225A626B
:100FEC00074B00229A62064B0A22DA62044804F08C
:100FFC0041FE0346002B01D0FFF757FD00BF80BD1B
:10100C00740200200030014080B588B000AF7860D9
:10101C0007F1100300221A605A609A60DA607B684C
:10102C001B68464A934240F08480454B9B69444A76
:10103C0043F480539361424B9B6903F48053FB60F0
:10104C00FB683F4B9B693E4A43F0040393613C4B66
:10105C009B6903F00403BB60BB68A0233B610223C4
:10106C007B610323FB6107F110031946354801F03E
:10107C003FFD40233B6100237B610023BB6107F1F3
:10108C00100319462F4801F033FD2F4B2F4A1A60DD
:10109C002D4B00225A602C4B00229A602A4B802246
:1010AC00DA60294B00221A61274B00225A61264B29
:1010BC0000229A61244B0022DA61234801F0ECF8FB
:1010CC000346002B01D0FFF7F0FC7B681E4ADA6464
:1010DC001D4A7B6853621E4B1E4A1A601C4B102221
:1010EC005A601B4B00229A60194B8022DA60184B15
:1010FC0000221A61164B00225A61154B00229A618C
:10110C00134B0022DA61124801F0C6F80346002B9B
:10111C0001D0FFF7CAFC7B680D4A9A640C4A7B68C5
:10112C00536200220021232001F073F8232001F0E8
:10113C008CF800BF2037BD4680BD00BF0030014099
:10114C000010024000080140CC0200201C000240AC
:10115C00100300203000024080B584B000AF1D4B5E
:10116C009B691C4A43F0010393611A4B9B6903F082
:10117C000103BB60BB68174BDB69164A43F0805315
:10118C00D361144BDB6903F080537B607B680022D6
:10119C000021042001F03DF8042001F056F8002253
:1011AC000021052001F035F8052001F04EF80A4B1E
:1011BC005B68FB60FB6823F0E063FB60FB6843F05B
:1011CC000073FB60044AFB68536000BF1037BD46D8
:1011DC0080BD00BF001002400000014080B400AF91
:1011EC0000BFFDE780B400AF00BFFDE780B400AFE7
:1011FC0000BFFDE780B400AF00BFFDE780B400AFD7
:10120C0000BFFDE780B400AF00BFBD4680BC704797
:10121C0080B400AF00BFBD4680BC704780B400AF47
:10122C0000BFBD4680BC704780B500AF00F098F998
:10123C0000BF80BD80B500AF01F0DCFA00BF80BDFF
:10124C0080B400AF00BFBD4680BC704780B500AF16
:10125C00024801F08FF900BF80BD00BFC400002020
:10126C0080B500AF024801F085F900BF80BD00BF1A
:10127C00CC02002080B500AF024801F07BF900BF22
:10128C0080BD00BF1003002080B500AF024801F004
:10129C0071F900BF80BD00BFA001002080B500AF78
:1012AC00024801F067F900BF80BD00BF5C0100205F
:1012BC0080B500AF024800F049FB00BF80BD00BF05
:1012CC009400002080B500AF024802F003F800BF84
:1012DC0080BD00BF0801002080B500AF024802F0BD
:1012EC006AF900BF80BD00BF0801002080B500AFC7
:1012FC00024804F0EDFE00BF80BD00BF7402002068
:10130C0080B500AF024805F07BF900BF80BD00BF7F
:10131C005803002080B586B000AF7860144A154B96
:10132C00D31A7B617B693B61134B1B68002B02D189
:10133C00114B124A1A60104B1A687B6813443A69B5
:10134C009A4207D206F060F803460C221A604FF05E
:10135C00FF3309E0084B1B68FB60074B1A687B687E
:10136C001344054A1360FB6818461837BD4680BD08
:10137C000050002000040000540300201005002041
:10138C0080B400AF00BFBD4680BC704780B500AFD5
:10139C00114B124A1A60104B4FF416525A600E4BF6
:1013AC0000229A600C4B0022DA600B4B00221A616F
:1013BC00094B0C225A61084B00229A61064B002201
:1013CC00DA61054805F041F80346002B01D0FFF720
:1013DC006CFB00BF80BD00BF5803002000380140EB
:1013EC0080B588B000AF786007F1100300221A6056
:1013FC005A609A60DA607B681B68204A934239D144
:10140C001F4B9B691E4A43F4804393611C4B9B69A1
:10141C0003F48043FB60FB68194B9B69184A43F04B
:10142C0004039361164B9B6903F00403BB60BB6818
:10143C004FF400733B6102237B610323FB6107F1D3
:10144C00100319460F4801F053FB4FF480633B61C6
:10145C0000237B610023BB6107F110031946094887
:10146C0001F046FB00220021252000F0D2FE2520B1
:10147C0000F0EBFE00BF2037BD4680BD00380140B8
:10148C000010024000080140FFF77AFF0B480C499E
:10149C000C4A002302E0D458C4500433C4188C42C4
:1014AC00F9D3094A094C002301E013600432A2422B
:1014BC00FBD305F0AFFFFFF72DFA704700000020BB
:1014CC007800002004860008780000201005002019
:1014DC00FEE7000080B500AF084B1B68074A43F0DD
:1014EC0010031360032000F089FE0F2000F008F8B1
:1014FC00FFF732FE0023184680BD00BF00200240DB
:10150C0080B582B000AF7860124B1A68124B1B7812
:10151C0019464FF47A73B3FBF1F3B2FBF3F31846AD
:10152C0000F0A1FE0346002B01D001230EE07B68E6
:10153C000F2B0AD8002279684FF0FF3000F069FEBB
:10154C00064A7B681360002300E001231846083725
:10155C00BD4680BD040000200C00002008000020C7
:10156C0080B400AF054B1B781A46054B1B6813441F
:10157C00034A136000BFBD4680BC70470C000020BE
:10158C00A003002080B400AF024B1B681846BD4678
:10159C0080BC7047A003002080B584B000AF786099
:1015AC00FFF7F0FFB8607B68FB60FB68B3F1FF3FAF
:1015BC0005D00A4B1B781A46FB681344FB6000BF2E
:1015CC00FFF7E0FF0246BB68D31AFA689A42F7D8D5
:1015DC0000BF00BF1037BD4680BD00BF0C0000200F
:1015EC0080B586B000AF78600023FB7500233B61AB
:1015FC000023BB600023FB607B68002B01D101231F
:10160C00BEE07B689B68002B7B689B6A002B09D132
:10161C007B680022DA627B68002283F824207868D9
:10162C00FEF71EFE786800F0BDFB0346FB757B6879
:10163C009B6A03F01003002B40F09980FB7D002B7C
:10164C0040F095807B689B6A23F4885323F0020357
:10165C0043F002027B689A627B685A687B68DB699C
:10166C001A437B681B7B5B001343BA681343BB6054
:10167C007B689B68B3F5807F03D07B689B68012BEC
:10168C0002D14FF4807300E000233A6913433B61AD
:10169C007B681B7D012B19D17B681B7B002B09D12F
:1016AC007B689B69013B5A033B69134343F400631A
:1016BC003B610BE07B689B6A43F020027B689A627B
:1016CC007B68DB6A43F001027B68DA627B681B682B
:1016DC005B6823F469417B681B683A690A435A606A
:1016EC007B681B689A68284B13407A681268B96843
:1016FC000B4393607B689B68B3F5807F03D07B685A
:10170C009B68012B04D17B681B69013B1B05FB60AB
:10171C007B681B68DB6A23F470017B681B68FA68C2
:10172C000A43DA627B681B689A68184B1340BA68E4
:10173C009A420BD17B680022DA627B689B6A23F0A9
:10174C00030343F001027B689A6218E07B689B6A92
:10175C0023F0120343F010027B689A627B68DB6A09
:10176C0043F001027B68DA620123FB7507E07B68BA
:10177C009B6A43F010027B689A620123FB75FB7D28
:10178C0018461837BD4680BDFDF7E1FFFE0E1FFF62
:10179C0080B586B000AFF860B9607A600023FB7545
:1017AC00FB681B68644A934204D0FB681B68634A5D
:1017BC00934206D1604B5B6803F47023002B40F01E
:1017CC00B380FB6893F82430012B01D10223AEE0E7
:1017DC00FB68012283F82420F86800F089FA03469C
:1017EC00FB75FB7D002B40F09A80FB689B6A23F411
:1017FC00706323F0010343F48072FB689A62FB6808
:10180C001B684E4A934205D14B4B5B6803F4702323
:10181C00002B15D1FB689B6A23F48012FB689A623B
:10182C00FB681B685B6803F48063002B26D0FB68A5
:10183C009B6A23F4405343F48052FB689A621DE088
:10184C00FB689B6A43F48012FB689A62FB681B6816
:10185C00394A934204D0FB681B68384A93420DD135
:10186C00354B5B6803F48063002B07D0FB689B6AE5
:10187C0023F4405343F48052FB689A62FB689B6AE2
:10188C0003F48053002B06D0FB68DB6A23F00602BE
:10189C00FB68DA6202E0FB680022DA62FB68002275
:1018AC0083F82420FB681B6A254A9A62FB681B6A32
:1018BC00244ADA62FB681B6A234A1A63FB681B68BA
:1018CC006FF002021A60FB681B689A68FB681B6861
:1018DC0042F480729A60FB68186AFB681B684C3390
:1018EC001946BA687B6800F031FDFB681B689B6881
:1018FC0003F46023B3F5602F08D1FB681B689A686A
:10190C00FB681B6842F4A0029A600FE0FB681B683E
:10191C009A68FB681B6842F480129A6006E0FB68C8
:10192C00002283F8242001E00123FB75FB7D18467F
:10193C001837BD4680BD00BF00240140002801407F
:10194C00331E0008AF1E0008CB1E000880B584B003
:10195C0000AF78607B681B681B68FB607B681B684A
:10196C005B68BB60BB6803F02003002B3ED0FB68B8
:10197C0003F00203002B39D07B689B6A03F0100341
:10198C00002B05D17B689B6A43F400727B689A62DA
:10199C007B681B689B6803F46023B3F5602F1DD133
:1019AC007B681B7B002B19D17B681B685A687B6892
:1019BC001B6822F020025A607B689B6A23F48072B9
:1019CC007B689A627B689B6A03F48053002B05D179
:1019DC007B689B6A43F001027B689A62786800F02E
:1019EC0074F87B681B686FF012021A60BB6803F016
:1019FC008003002B4DD0FB6803F00403002B48D070
:101A0C007B689B6A03F01003002B05D17B689B6AF3
:101A1C0043F400527B689A627B681B689B6803F4F2
:101A2C00E043B3F5E04F12D07B681B685B6803F4AE
:101A3C008063002B25D17B681B689B6803F46023B3
:101A4C00B3F5602F1DD17B681B7B002B19D17B68F4
:101A5C001B685A687B681B6822F080025A607B689E
:101A6C009B6A23F480527B689A627B689B6A03F4BE
:101A7C008073002B05D17B689B6A43F001027B6865
:101A8C009A62786800F0E4FA7B681B686FF00C02CD
:101A9C001A60BB6803F04003002B12D0FB6803F004
:101AAC000103002B0DD07B689B6A43F480327B686A
:101ABC009A62786800F012F87B681B686FF001027C
:101ACC001A6000BF1037BD4680BD80B483B000AF34
:101ADC00786000BF0C37BD4680BC704780B483B0C3
:101AEC0000AF786000BF0C37BD4680BC704780B437
:101AFC0083B000AF786000BF0C37BD4680BC704728
:101B0C0080B485B000AF786039600023FB7300238C
:101B1C00BB607B6893F82430012B01D10223DCE0FD
:101B2C007B68012283F824203B685B68062B1CD859
:101B3C007B681B68596B3B685A6813469B001344BF
:101B4C00053B1F2202FA03F3DB4319403B6818687C
:101B5C003B685A6813469B001344053B00FA03F29A
:101B6C007B681B680A435A633CE03B685B680C2B40
:101B7C001CD87B681B68196B3B685A6813469B0022
:101B8C001344233B1F2202FA03F3DB4319403B6847
:101B9C0018683B685A6813469B001344233B00FAB1
:101BAC0003F27B681B680A431A631BE07B681B68A3
:101BBC00D96A3B685A6813469B001344413B1F2269
:101BCC0002FA03F3DB4319403B6818683B685A6818
:101BDC0013469B001344413B00FA03F27B681B68DD
:101BEC000A43DA623B681B68092B1CD97B681B68AB
:101BFC00D9683B681A6813465B0013441E3B0722E6
:101C0C0002FA03F3DB4319403B6898683B681A6897
:101C1C0013465B0013441E3B00FA03F27B681B68FF
:101C2C000A43DA6019E07B681B6819693B681A681B
:101C3C0013465B001344072202FA03F3DB431940FB
:101C4C003B6898683B681A6813465B00134400FABB
:101C5C0003F27B681B680A431A613B681B68102BF4
:101C6C0003D03B681B68112B32D17B681B681D4A63
:101C7C00934225D17B681B689B6803F40003002BFF
:101C8C0026D17B681B689A687B681B6842F400024B
:101C9C009A603B681B68102B1AD1134B1B68134AB4
:101CAC00A2FB03239A0C13469B0013445B00BB60FE
:101CBC0002E0BB68013BBB60BB68002BF9D107E0BD
:101CCC007B689B6A43F020027B689A620123FB735A
:101CDC007B68002283F82420FB7B18461437BD4612
:101CEC0080BC7047002401400400002083DE1B43AD
:101CFC0080B584B000AF78600023FB600023BB602C
:101D0C007B681B689B6803F00103012B40D07B6848
:101D1C001B689A687B681B6842F001029A601F4B33
:101D2C001B681F4AA2FB03239B0CBB6002E0BB6831
:101D3C00013BBB60BB68002BF9D1FFF723FCF860BB
:101D4C001FE0FFF71FFC0246FB68D31A022B18D9C1
:101D5C007B681B689B6803F00103012B11D07B6827
:101D6C009B6A43F010027B689A627B68DB6A43F0E3
:101D7C0001027B68DA627B68002283F8242001234D
:101D8C0007E07B681B689B6803F00103012BD8D12B
:101D9C00002318461037BD4680BD00BF040000204C
:101DAC0083DE1B4380B584B000AF78600023FB60FA
:101DBC007B681B689B6803F00103012B2ED17B68A9
:101DCC001B689A687B681B6822F001029A60FFF717
:101DDC00D9FBF8601BE0FFF7D5FB0246FB68D31A72
:101DEC00022B14D97B681B689B6803F00103012B41
:101DFC000DD17B689B6A43F010027B689A627B680A
:101E0C00DB6A43F001027B68DA62012307E07B683E
:101E1C001B689B6803F00103012BDCD000231846E0
:101E2C001037BD4680BD80B584B000AF78607B684C
:101E3C005B6AFB60FB689B6A03F05003002B27D1A5
:101E4C00FB689B6A43F40072FB689A62FB681B6830
:101E5C009B6803F46023B3F5602F15D1FB681B7BE3
:101E6C00002B11D1FB689B6A23F48072FB689A6289
:101E7C00FB689B6A03F48053002B05D1FB689B6ABB
:101E8C0043F00102FB689A62F868FFF71EFE04E05B
:101E9C00FB681B6A1B6B7868984700BF1037BD4600
:101EAC0080BD80B584B000AF78607B685B6AFB60F6
:101EBC00F868FEF781FC00BF1037BD4680BD80B5C9
:101ECC0084B000AF78607B685B6AFB60FB689B6AE0
:101EDC0043F04002FB689A62FB68DB6A43F0040241
:101EEC00FB68DA62F868FFF702FE00BF1037BD46E8
:101EFC0080BD000090B587B000AF78600023FB7503
:101F0C000023FB607B6893F82430012B01D1022362
:101F1C0097E07B68012283F824207868FFF742FF62
:101F2C000346FB757868FFF7E3FE0346FB75FB7D04
:101F3C00002B40F081807B689B6A23F4885323F04C
:101F4C00020343F002027B689A62404B1C68022039
:101F5C0003F0DAFD0346B4FBF3F35B00FB6002E035
:101F6C00FB68013BFB60FB68002BF9D17B681B68AD
:101F7C009A687B681B6842F008029A60FFF702FBC4
:101F8C0038611BE0FFF7FEFA02463B69D31A0A2BB5
:101F9C0014D97B681B689B6803F00803002B0DD0D9
:101FAC007B689B6A23F0120343F010027B689A62F1
:101FBC007B68002283F82420012342E07B681B68A5
:101FCC009B6803F00803002BDCD17B681B689A68C4
:101FDC007B681B6842F004029A60FFF7D3FA386101
:101FEC001BE0FFF7CFFA02463B69D31A0A2B14D930
:101FFC007B681B689B6803F00403002B0DD07B6887
:10200C009B6A23F0120343F010027B689A627B6890
:10201C00002283F82420012313E07B681B689B6853
:10202C0003F00403002BDCD17B689B6A23F00303D1
:10203C0043F001027B689A627B68002283F82420BB
:10204C00FB7D18461C37BD4690BD00BF0400002028
:10205C0080B483B000AF786000BF0C37BD4680BC45
:10206C007047000080B485B000AF78607B6803F0E7
:10207C000703FB600C4BDB68BB60BA684FF6FF03D1
:10208C001340BB60FB681A02BB68134343F0BF6389
:10209C0043F40033BB60044ABB68D36000BF143701
:1020AC00BD4680BC704700BF00ED00E080B400AFBF
:1020BC00044BDB681B0A03F007031846BD4680BCC3
:1020CC00704700BF00ED00E080B483B000AF034662
:1020DC00FB7197F90730002B0BDBFB7903F01F0228
:1020EC00064997F907305B09012000FA02F241F822
:1020FC00232000BF0C37BD4680BC704700E100E0D8
:10210C0080B483B000AF03463960FB7197F9073098
:10211C00002B0ADB3B68DAB20C4997F90730120145
:10212C00D2B20B4483F800230AE03B68DAB20849C8
:10213C00FB7903F00F03043B1201D2B20B441A7665
:10214C0000BF0C37BD4680BC704700BF00E100E00B
:10215C0000ED00E080B489B000AFF860B9607A603F
:10216C00FB6803F00703FB61FB69C3F10703042B56
:10217C0028BF0423BB61FB690433062B02D9FB691E
:10218C00033B00E000237B614FF0FF32BB6902FA96
:10219C0003F3DA43BB681A407B699A404FF0FF3176
:1021AC007B6901FA03F3D9437B680B401343184650
:1021BC002437BD4680BC704780B582B000AF7860D4
:1021CC007B68013BB3F1807F01D301230FE00A4A06
:1021DC007B68013B53600F214FF0FF30FFF790FFFE
:1021EC00054B00229A60044B07221A600023184604
:1021FC000837BD4680BD00BF10E000E080B582B05E
:10220C0000AF78607868FFF72DFF00BF0837BD4638
:10221C0080BD80B586B000AF0346B9607A60FB73B1
:10222C0000237B61FFF742FF78617A68B9687869AF
:10223C00FFF790FF024697F90F3011461846FFF74B
:10224C005FFF00BF1837BD4680BD80B582B000AFC0
:10225C000346FB7197F907301846FFF735FF00BFAF
:10226C000837BD4680BD80B582B000AF7860786815
:10227C00FFF7A2FF034618460837BD4680BD80B560
:10228C0000AF00F002F800BF80BD80B400AF00BF0B
:10229C00BD4680BC7047000080B485B000AF78604C
:1022AC000023FB607B68002B01D1012343E07B689A
:1022BC001B681A46224B1344224AA2FB03231B0918
:1022CC009A007B681A647B681F4ADA637B68022277
:1022DC0083F821207B681B681B68FB60FB6823F478
:1022EC007F5323F03003FB607B685A687B689B68E4
:1022FC001A437B68DB681A437B681B691A437B684B
:10230C005B691A437B689B691A437B68DB691343DF
:10231C00FA681343FB607B681B68FA681A607B6879
:10232C0000229A637B68012283F821207B680022BB
:10233C0083F82020002318461437BD4680BC704714
:10234C00F8FFFDBFCDCCCCCC0000024080B586B0F0
:10235C0000AFF860B9607A603B600023FB75FB68E6
:10236C0093F82030012B01D102234BE0FB680122B2
:10237C0083F82020FB6893F82130DBB2012B3AD193
:10238C00FB68022283F82120FB6800229A63FB6819
:10239C001B681A68FB681B6822F001021A603B6814
:1023AC007A68B968F86800F0F8F9FB68DB6A002B0A
:1023BC0008D0FB681B681A68FB681B6842F00E02A9
:1023CC001A600FE0FB681B681A68FB681B6822F038
:1023DC0004021A60FB681B681A68FB681B6842F0F1
:1023EC000A021A60FB681B681A68FB681B6842F0DB
:1023FC0001021A6005E0FB68002283F8202002230A
:10240C00FB75FB7D18461837BD4680BD80B485B082
:10241C0000AF78600023FB737B6893F82130DBB24C
:10242C00022B08D07B6804229A637B68002283F815
:10243C002020012320E07B681B681A687B681B68DE
:10244C0022F00E021A607B681B681A687B681B6896
:10245C0022F001021A607B681A6C7B68DB6B01212D
:10246C0001FA02F25A607B68012283F821207B6812
:10247C00002283F82020FB7B18461437BD4680BC15
:10248C007047000080B584B000AF78600023FB7308
:10249C007B6893F82130DBB2022B05D07B680422D9
:1024AC009A630123FB7351E07B681B681A687B6895
:1024BC001B6822F00E021A607B681B681A687B6826
:1024CC001B6822F001021A607B681B68224A934247
:1024DC0029D07B681B68214A934222D07B681B68F9
:1024EC001F4A93421AD07B681B681E4A934212D033
:1024FC007B681B681C4A93420AD07B681B681B4A8A
:10250C00934202D14FF480130EE04FF080730BE036
:10251C004FF4803308E04FF4805305E04FF48073A0
:10252C0002E0102300E00123114A53607B68012272
:10253C0083F821207B68002283F820207B685B6B6A
:10254C00002B03D07B685B6B78689847FB7B184645
:10255C001037BD4680BD00BF080002401C00024081
:10256C003000024044000240580002406C0002401F
:10257C000000024080B584B000AF78607B68DB6BF4
:10258C001B68FB607B681B681B68BB607B681B6CF3
:10259C0004229A40FB681340002B4FD0BB6803F019
:1025AC000403002B4AD07B681B681B6803F02003D4
:1025BC00002B07D17B681B681A687B681B6822F0AC
:1025CC0004021A607B681B68664A934229D07B68B8
:1025DC001B68654A934222D07B681B68634A93420E
:1025EC001AD07B681B68624A934212D07B681B68C6
:1025FC00604A93420AD07B681B685F4A934202D1BF
:10260C004FF480030EE04FF080630BE04FF4802317
:10261C0008E04FF4804305E04FF4806302E0402370
:10262C0000E00423554A53607B68DB6A002B00F002
:10263C0094807B68DB6A786898478EE07B681B6CBB
:10264C0002229A40FB681340002B56D0BB6803F063
:10265C000203002B51D07B681B681B6803F020031E
:10266C00002B0BD17B681B681A687B681B6822F0F7
:10267C000A021A607B68012283F821207B681B68A0
:10268C00384A934229D07B681B68374A934222D040
:10269C007B681B68354A93421AD07B681B68344AA6
:1026AC00934212D07B681B68324A93420AD07B68F3
:1026BC001B68314A934202D14FF400130EE04FF0E5
:1026CC0000730BE04FF4003308E04FF4005305E0C7
:1026DC004FF4007302E0202300E00223274A5360EA
:1026EC007B68002283F820207B689B6A002B34D007
:1026FC007B689B6A786898472FE07B681B6C082284
:10270C009A40FB681340002B28D0BB6803F00803E9
:10271C00002B23D07B681B681A687B681B6822F02F
:10272C000E021A607B681A6C7B68DB6B012101FA64
:10273C0002F25A607B6801229A637B68012283F85B
:10274C0021207B68002283F820207B681B6B002BE8
:10275C0004D07B681B6B7868984700BF00BF1037AC
:10276C00BD4680BD080002401C0002403000024003
:10277C0044000240580002406C000240000002403D
:10278C0080B483B000AF78607B6893F82130DBB203
:10279C0018460C37BD4680BC704780B485B000AF7E
:1027AC00F860B9607A603B60FB681A6CFB68DB6BA5
:1027BC00012101FA02F25A60FB681B683A685A6000
:1027CC00FB685B68102B08D1FB681B687A689A6001
:1027DC00FB681B68BA68DA6007E0FB681B68BA68BC
:1027EC009A60FB681B687A68DA6000BF1437BD46D4
:1027FC0080BC704780B582B000AF00237B606B4B10
:10280C00DB6803F01003002B05D1684BDB6803F089
:10281C000403002B0ED0664B9B687B60644B4FF01F
:10282C00FF329A6000F0F4F8786800F0CCF8604B56
:10283C0000221A705D4BDB6803F02003002B00F0C4
:10284C00A0805A4B2022DA60594B1B78DBB2002B4C
:10285C0000F09780564B1B78DBB2012B2DD1544BDB
:10286C005B68013B524A5360514B5B68002B17D09D
:10287C004F4B9B687B60786800F09CF84C4B9B68D6
:10288C0003F580637B604A4A7B689360474B1B6906
:10289C00464A23F002031361786800F009F970E0EE
:1028AC004FF0FF337B60424A7B689360404B0022C1
:1028BC001A70786800F07EF863E03D4B1B78DBB251
:1028CC00022B0CD1394B1B69384A23F004031361DA
:1028DC00002000F06FF8364B00221A7051E0344B98
:1028EC005B68013B324A5360314B5B68002B24D050
:1028FC002F4B9B6802332E4A93602D4B9B687B6059
:10290C002B4BD3E904014FF000024FF00003020CF3
:10291C0042EA01420B0C2649C1E90423234B1B69F3
:10292C00224A23F001031361214BD3E9042393B210
:10293C001946786800F050F823E01D4B1B78DBB289
:10294C00032B05D11A4B9B68184600F033F811E0A5
:10295C00174B1B78DBB2042B06D1154B9B68023B43
:10296C00184600F027F805E0114B9B68063B18460B
:10297C0000F020F80E4B4FF0FF329A600C4B002207
:10298C001A700B4B1B78DBB2002B0BD1074B1B695E
:10299C00064A23F007031361044B1B69034A23F413
:1029AC00A053136100BF0837BD4680BD0020024014
:1029BC00A803002080B483B000AF786000BF0C3750
:1029CC00BD4680BC704780B483B000AF786000BF58
:1029DC000C37BD4680BC704780B483B000AF7860C4
:1029EC000B467B80084B0022DA61084B1B69074AB7
:1029FC0043F0010313617B687A881A8000BF0C379F
:102A0C00BD4680BC704700BFA803002000200240D8
:102A1C0080B483B000AF00237B60234BDB6803F0F2
:102A2C001003002B09D0214BDB6943F002031F4A32
:102A3C00D3617B6843F010037B601B4BDB6803F0B6
:102A4C000403002B09D0194BDB6943F00103174A2F
:102A5C00D3617B6843F004037B60134BDB6903F0A9
:102A6C000103002B0BD0114BDB6943F004030F4A1D
:102A7C00D3610D4BDB690C4A23F00103D3617B68F6
:102A8C0040F20112934206D1074BDB69064A23F050
:102A9C000103D36102E0044A7B68D36000BF0C37AA
:102AAC00BD4680BC704700BF00200240A803002038
:102ABC0080B483B000AF78600B4B0022DA610B4B13
:102ACC001B690A4A43F002031361084A7B6853618D
:102ADC00064B1B69054A43F04003136100BF0C37DA
:102AEC00BD4680BC704700BFA803002000200240F8
:102AFC0080B48BB000AF7860396000237B62002318
:102B0C003B6269E101227B6A02FA03F3FB613B68D9
:102B1C001B68FA691340BB61BA69FB699A4240F0C1
:102B2C0058813B685B689A4A93425ED0984A9342BC
:102B3C0075D8984A934258D0964A93426FD8964A81
:102B4C00934252D0944A934269D8944A93424CD0BF
:102B5C00924A934263D8924A934246D0904A934207
:102B6C005DD8122B2AD8122B59D801A252F823F077
:102B7C00F72B0008D12B0008E32B0008252C0008AC
:102B8C002B2C00082B2C00082B2C00082B2C0008BD
:102B9C002B2C00082B2C00082B2C00082B2C0008AD
:102BAC002B2C00082B2C00082B2C00082B2C00089D
:102BBC002B2C0008D92B0008ED2B0008794A9342E6
:102BCC0013D02CE03B68DB683B6229E03B68DB6898
:102BDC0004333B6224E03B68DB6808333B621FE054
:102BEC003B68DB680C333B621AE03B689B68002B4C
:102BFC0002D104233B6213E03B689B68012B05D197
:102C0C0008233B627B68FA691A6109E008233B627E
:102C1C007B68FA695A6103E000233B6200E000BF65
:102C2C00BB69FF2B01D87B6801E07B6804337B61B7
:102C3C00BB69FF2B02D87B6A9B0002E07B6A083BD6
:102C4C009B003B617B691A680F213B6901FA03F316
:102C5C00DB431A40396A3B6901FA03F31A437B6977
:102C6C001A603B685B6803F08053002B00F0B18066
:102C7C004D4B9B694C4A43F0010393614A4B9B6952
:102C8C0003F00103BB60BB68484A7B6A9B080233B4
:102C9C0052F82330FB607B6A03F003039B000F2286
:102CAC0002FA03F3DB43FA681340FB607B68404A8B
:102CBC00934213D07B683F4A93420DD07B683E4AC7
:102CCC00934207D07B683D4A934201D1032306E02F
:102CDC00042304E0022302E0012300E000237A6ACB
:102CEC0002F0030292009340FA681343FB602F49F1
:102CFC007B6A9B080233FA6841F823203B685B68C7
:102D0C0003F48013002B06D02D4B9A682C49BB6919
:102D1C0013438B6006E02A4B9A68BB69DB43284956
:102D2C0013408B603B685B6803F40013002B06D0E8
:102D3C00234BDA682249BB691343CB6006E0204B76
:102D4C00DA68BB69DB431E491340CB603B685B68A8
:102D5C0003F40033002B06D0194B5A681849BB6991
:102D6C0013434B6006E0164B5A68BB69DB431449AE
:102D7C0013404B603B685B6803F48033002B21D01D
:102D8C000F4B1A680E49BB6913430B6021E000BF5F
:102D9C000000321000003110000022100000211041
:102DAC000000121000001110001002400000014041
:102DBC0000080140000C01400010014000140140CB
:102DCC00000401400B4B1A68BB69DB4309491340F3
:102DDC000B607B6A01337B623B681A687B6A22FA60
:102DEC0003F3002B7FF48EAE00BF00BF2C37BD4623
:102DFC0080BC70470004014080B483B000AF7860A1
:102E0C000B467B8013467B707B78002B03D07A8833
:102E1C007B681A6103E07B881A047B681A6100BF27
:102E2C000C37BD4680BC704780B584B000AF78606D
:102E3C007B68002B01D101232BE17B6893F83D309B
:102E4C00DBB2002B06D17B68002283F83C2078682B
:102E5C00FDF78AFB7B68242283F83D207B681B6886
:102E6C001A687B681B6822F001021A607B681B6879
:102E7C001A687B681B6842F400421A607B681B6806
:102E8C001A687B681B6822F400421A6002F040FD4D
:102E9C00F8607B685B68814A934207D8FB68804A7C
:102EAC00934294BF01230023DBB206E0FB687D4A0A
:102EBC00934294BF01230023DBB2002B01D00123EA
:102ECC00E7E0FB68784AA2FB03239B0CBB607B68A2
:102EDC001B685B6823F03F017B681B68BA680A4378
:102EEC005A607B681B681B6A23F03F017B685B6838
:102EFC006A4A934202D8BB68013309E0BB684FF4BD
:102F0C00967202FB03F3694AA2FB03239B0901336C
:102F1C007A6812680B4313627B681B68DB6923F4C5
:102F2C004F4222F0FF027B685B685C498B4219D8E8
:102F3C00FB68591E7B685B685B00B1FBF3F3591CA3
:102F4C0040F6FC730B40002B0AD0FB68591E7B68C3
:102F5C005B685B00B1FBF3F30133C3F30B0351E08C
:102F6C0004234FE07B689B68002B11D1FB68581E33
:102F7C007B6859680B465B000B44B0FBF3F30133E1
:102F8C00C3F30B03002B0CBF01230023DBB212E0B5
:102F9C00FB68581E7B6859680B469B000B449900D4
:102FAC000B44B0FBF3F30133C3F30B03002B0CBF47
:102FBC0001230023DBB2002B01D0012322E07B682C
:102FCC009B68002B0ED1FB68581E7B6859680B461A
:102FDC005B000B44B0FBF3F30133C3F30B0343F47B
:102FEC0000430FE0FB68581E7B6859680B469B003A
:102FFC000B4499000B44B0FBF3F30133C3F30B0305
:10300C0043F44043796809681343CB617B681B68C0
:10301C001B6823F0C0017B68DA697B681B6A1A4362
:10302C007B681B680A431A607B681B689B6823F4E7
:10303C00034323F0FF037A6811697A68D26811435D
:10304C007A6812680B4393607B681B68DB6823F01B
:10305C00FF017B685A697B689B691A437B681B6814
:10306C000A43DA607B681B681A687B681B6842F04D
:10307C0001021A607B6800221A647B68202283F8A4
:10308C003D207B6800221A637B68002283F83E2077
:10309C00002318461037BD4680BD00BFA086010036
:1030AC007F841E00FF083D0083DE1B43D34D62105E
:1030BC0080B483B000AF78607B681B685B6903F0F9
:1030CC008003802B03D17B681B6800221A6100BF30
:1030DC000C37BD4680BC704780B588B002AFF86035
:1030EC007A601A460B467B8113463B81FEF74AFAFF
:1030FC007861FB6893F83D30DBB2202B40F0E08028
:10310C007B690093192301227049F86801F012FEC3
:10311C000346002B01D00223D3E0FB6893F83C302C
:10312C00012B01D10223CCE0FB68012283F83C2067
:10313C00FB681B681B6803F00103012B07D0FB68BD
:10314C001B681A68FB681B6842F001021A60FB6876
:10315C001B681A68FB681B6822F400621A60FB6823
:10316C00212283F83D20FB68102283F83E20FB6867
:10317C0000221A64FB687A685A62FB683A895A859D
:10318C00FB685B8D9AB2FB681A85FB68504ADA6261
:10319C0079897B693A6AF86801F0A2FC0346002B36
:1031AC0001D001238DE000233B61FB681B685B6948
:1031BC003B61FB681B689B693B613B6966E07A6914
:1031CC00396AF86801F0D0FE0346002B0DD0FB687D
:1031DC001B6C042B07D1FB681B681A68FB681B6807
:1031EC0042F400721A6001236BE0FB685B6A1A7888
:1031FC00FB681B681A61FB685B6A5A1CFB685A62A5
:10320C00FB685B8D9BB2013B9AB2FB685A85FB68ED
:10321C001B8D013B9AB2FB681A85FB681B685B69C6
:10322C0003F00403042B1BD1FB681B8D002B17D060
:10323C00FB685B6A1A78FB681B681A61FB685B6A3F
:10324C005A1CFB685A62FB685B8D9BB2013B9AB2BD
:10325C00FB685A85FB681B8D013B9AB2FB681A858B
:10326C007A69396AF86801F0C7FE0346002B0DD065
:10327C00FB681B6C042B07D1FB681B681A68FB6886
:10328C001B6842F400721A6001231AE0FB681B8D64
:10329C00002B94D1FB681B681A68FB681B6842F40E
:1032AC0000721A60FB68202283F83D20FB68002224
:1032BC0083F83E20FB68002283F83C20002300E0CA
:1032CC00022318461837BD4680BD00BF020010000F
:1032DC000000FFFF80B588B000AF78600023BB61B1
:1032EC007B681B685B687B617B68DB6A3B617B6826
:1032FC0093F83E30FB737B6893F83D30BB73FB7BDC
:10330C00102B03D0FB7B402B40F0C1807B681B68EB
:10331C009B69BB617B681B685B69FB61FB6903F0A4
:10332C000103002B0DD13B69B3F52A0F03D03B6988
:10333C00B3F12A4F01D1012300E00023012B00F04F
:10334C003281FB6903F00103002B0CD07B695B0A13
:10335C0003F00103002B06D0786801F0F5FE7868C5
:10336C0000F099FD92E0FB69DB0803F00103002BF0
:10337C0009D07B695B0A03F00103002B03D078684A
:10338C0000F00EFE82E0FB695B0803F00103002BEA
:10339C0009D07B695B0A03F00103002B03D078682A
:1033AC0000F027FE72E0BB699B0803F00103002BC1
:1033BC003BD07B681B685B6803F40063B3F5006F5C
:1033CC0000F0F380FB69DB0903F00103002B0FD045
:1033DC007B699B0A03F00103002B09D0FB699B0856
:1033EC0003F00103002B03D1786800F0F1F94DE0F4
:1033FC00FB699B0803F00103002B00F0D6807B696E
:10340C005B0A03F00103002B00F0CF80BB7B212B68
:10341C0003D1786800F078FAC7E0FB7B402B40F0D2
:10342C00C480786800F0E6FABFE07B681B685B68D4
:10343C0003F40063B3F5006F00F0B780FB699B09E0
:10344C0003F00103002B0FD07B699B0A03F00103EF
:10345C00002B09D0FB699B0803F00103002B03D15F
:10346C00786800F05FFB11E0FB699B0803F0010337
:10347C00002B00F09A807B695B0A03F00103002BA0
:10348C0000F09380786800F015FC8EE08DE07B688E
:10349C001B6C002B04D07B681B685B69FB6107E02D
:1034AC007B681B689B69BB617B681B685B69FB6104
:1034BC00FB695B0803F00103002B12D07B695B0AEC
:1034CC0003F00103002B0CD07B681B6C002B03D08A
:1034DC007B681B689B69BB61B969786800F0E0FF89
:1034EC0066E0FB691B0903F00103002B09D07B6923
:1034FC005B0A03F00103002B03D0786801F01AF883
:10350C0056E0BB7B212B02D0BB7B292B25D1FB6941
:10351C00DB0903F00103002B0FD07B699B0A03F03E
:10352C000103002B09D0FB699B0803F00103002B5E
:10353C0003D1786800F0F8FE39E0FB699B0803F0D2
:10354C000103002B33D07B695B0A03F00103002BD2
:10355C002DD0786800F025FF29E0FB699B0903F06A
:10356C000103002B0FD07B699B0A03F00103002B96
:10357C0009D0FB699B0803F00103002B03D1786889
:10358C0000F02FFF14E0FB699B0803F00103002BF4
:10359C000ED07B695B0A03F00103002B08D078681E
:1035AC0000F05DFF04E000BF02E000BF00E000BFE0
:1035BC002037BD4680BD80B58AB000AF78607B688F
:1035CC001B685B693B627B681B685B68FB61002363
:1035DC007B627B6893F83E30FB763B6A1B0A03F0F8
:1035EC000103002B16D0FB691B0A03F00103002B0F
:1035FC0010D07B6A43F001037B627B681B686FF41D
:10360C0080725A617B681B681A687B681B6842F47D
:10361C0000421A603B6A5B0A03F00103002B0ED0D8
:10362C00FB691B0A03F00103002B08D07B6A43F0F3
:10363C0002037B627B681B686FF400725A613B6A01
:10364C009B0A03F00103002B3FD0FB691B0A03F01C
:10365C000103002B39D0FB7EBB767B685B8D9BB264
:10366C007B617B6893F83D30FB747B681B6BFB6064
:10367C00BB7E202B12D17B69002B0FD1FB7C212B25
:10368C0008D0FB7C292B05D0FB7C282B06D1FB68B2
:10369C00212B03D1786801F07DF816E07B681B685C
:1036AC006FF480625A617B6A43F004037B62FB7E99
:1036BC00102B02D0FB7E402B07D17B681B681A684D
:1036CC007B681B6842F400721A603B6ADB0A03F0E9
:1036DC000103002B0ED0FB691B0A03F00103002B26
:1036EC0008D07B6A43F008037B627B681B686FF42D
:1036FC0000625A617B6A002B08D07B681A6C7B6A6B
:10370C001A437B681A64786801F0B8F800BF283750
:10371C00BD4680BD80B483B000AF786000BF0C376D
:10372C00BD4680BC704780B483B000AF786000BFEA
:10373C000C37BD4680BC704780B483B000AF786056
:10374C0000BF0C37BD4680BC704780B483B000AF5F
:10375C00786000BF0C37BD4680BC704780B483B026
:10376C0000AF78600B46FB7013463B8000BF0C37F4
:10377C00BD4680BC704780B483B000AF786000BF9A
:10378C000C37BD4680BC704780B483B000AF786006
:10379C0000BF0C37BD4680BC704780B483B000AF0F
:1037AC00786000BF0C37BD4680BC704780B483B0D6
:1037BC0000AF786000BF0C37BD4680BC704780B44A
:1037CC0083B000AF786000BF0C37BD4680BC70473B
:1037DC0080B584B000AF78607B6893F83D30FB73A4
:1037EC007B6893F83E30BB737B68DB6ABB607B689D
:1037FC001B8D002B50D1FB7B212B4DD1BB68082B93
:10380C001DD0BB68202B1AD0BB6813F5803F16D097
:10381C007B681B685A687B681B6822F4E0625A60FC
:10382C007B6811221A637B68002283F83E207B6838
:10383C00202283F83D207868FFF76CFF60E07B68FE
:10384C001B685A687B681B6822F4E0625A607B68CC
:10385C001B681A687B681B6842F400721A607B68EC
:10386C0000221A637B68202283F83D207B6893F842
:10387C003E30DBB2402B07D17B68002283F83E2020
:10388C007868FFF781FF3BE07B68002283F83E20DD
:10389C007868FFF73FFF33E0FB7B212B05D0BB7B28
:1038AC00402B2DD1FB7B222B2AD17B685B8D9BB2CD
:1038BC00002B08D17B681B685A687B681B6822F454
:1038CC0080625A601CE07B6893F83E30DBB2402B80
:1038DC0003D1786800F08EF812E07B685B6A1A7886
:1038EC007B681B681A617B685B6A5A1C7B685A622E
:1038FC007B685B8D9BB2013B9AB27B685A85FFE774
:10390C0000BF1037BD4680BD80B584B000AF786075
:10391C007B68DB6AFB607B6893F83D30DBB2212B64
:10392C0064D17B685B8D9BB2002B12D07B685B6A89
:10393C001A787B681B681A617B685B6A5A1C7B6807
:10394C005A627B685B8D9BB2013B9AB27B685A854D
:10395C004CE0FB68082B1DD0FB68202B1AD0FB68B1
:10396C0013F5803F16D07B681B685A687B681B6810
:10397C0022F4E0625A607B6811221A637B68002291
:10398C0083F83E207B68202283F83D207868FFF77F
:10399C00C1FE2BE07B681B685A687B681B6822F4AD
:1039AC00E0625A607B681B681A687B681B6842F48B
:1039BC0000721A607B6800221A637B68202283F8ED
:1039CC003D207B6893F83E30DBB2402B07D17B68FF
:1039DC00002283F83E207868FFF7D6FE06E07B686D
:1039EC00002283F83E207868FFF794FE00BF103762
:1039FC00BD4680BD80B584B000AF78607B6893F81D
:103A0C003D30FB737B681B6D002B1DD17B68DB6C21
:103A1C00012B0BD17B689B6CDAB27B681B681A613B
:103A2C007B681B6D9A1C7B681A6577E07B689B6CC6
:103A3C009BB21B12DAB27B681B681A617B681B6D28
:103A4C005A1C7B681A6569E07B681B6D012B0BD1D6
:103A5C007B689B6CDAB27B681B681A617B681B6D98
:103A6C005A1C7B681A6559E07B681B6D022B52D17E
:103A7C00FB7B222B0DD17B681B681A687B681B684B
:103A8C0042F480721A607B681B6D5A1C7B681A6545
:103A9C0044E07B685B8D9BB2002B15D0FB7B212B0C
:103AAC0012D17B685B6A1A787B681B681A617B6829
:103ABC005B6A5A1C7B685A627B685B8D9BB2013BCC
:103ACC009AB27B685A8529E07B685B8D9BB2002B90
:103ADC0024D1FB7B212B21D17B681B685A687B6826
:103AEC001B6822F4E0625A607B681B681A687B686A
:103AFC001B6842F400721A607B6800221A637B68B0
:103B0C00202283F83D207B68002283F83E207868D1
:103B1C00FFF73AFE02E07868FFF7CAFA00BF1037E9
:103B2C00BD4680BD80B584B000AF78607B6893F8EB
:103B3C003D30DBB2222B40F0B9807B68DB6AFB6046
:103B4C007B685B8D9BB2BB60BB68032B21D97B6808
:103B5C001B681A697B685B6AD2B21A707B685B6AF5
:103B6C005A1C7B685A627B685B8D9BB2013B9AB294
:103B7C007B685A857B685B8D9BB2032B40F09680EB
:103B8C007B681B685A687B681B6822F480625A60E9
:103B9C008CE07B68DB6A022B7FD0BB68012B02D0E8
:103BAC00BB68002B79D1786801F06EFA0346002BC4
:103BBC004CD17B681B681A687B681B6822F4806296
:103BCC001A607B681B685A687B681B6822F4E06289
:103BDC005A607B681B681A697B685B6AD2B21A7080
:103BEC007B685B6A5A1C7B685A627B685B8D9BB2F4
:103BFC00013B9AB27B685A857B68202283F83D2072
:103C0C007B6893F83E30DBB2402B0AD17B680022F4
:103C1C0083F83E207B6800221A637868FFF7BDFDAD
:103C2C0044E07B68002283F83E20FB68082B02D01E
:103C3C00FB68202B03D17B6800221A6302E07B68AF
:103C4C0012221A637868FFF76EFD2FE07B681B6801
:103C5C005A687B681B6822F4E0625A607B681B68B8
:103C6C001A697B685B6AD2B21A707B685B6A5A1CF1
:103C7C007B685A627B685B8D9BB2013B9AB27B6816
:103C8C005A857B68202283F83D207B68002283F8CC
:103C9C003E207868FFF78AFD08E07B681B685A684D
:103CAC007B681B6822F480625A60FFE700BF103704
:103CBC00BD4680BD80B584B000AF78607B68DB6AA0
:103CCC00FB607B685B8D9BB2042B1BD17B681B68F4
:103CDC005A687B681B6822F480625A607B681B6898
:103CEC001A697B685B6AD2B21A707B685B6A5A1C71
:103CFC007B685A627B685B8D9BB2013B9AB27B6896
:103D0C005A85C4E07B685B8D9BB2032B29D17B6801
:103D1C001B685A687B681B6822F480625A60FB68D7
:103D2C00042B0AD0FB68022B07D07B681B681A682F
:103D3C007B681B6822F480621A607B681B681A69B6
:103D4C007B685B6AD2B21A707B685B6A5A1C7B68B0
:103D5C005A627B685B8D9BB2013B9AB27B685A8539
:103D6C0095E07B685B8D9BB2022B7DD1FB68012BB0
:103D7C0002D0FB68102B08D17B681B681A687B6823
:103D8C001B6822F480621A6016E0FB68042B02D0D8
:103D9C00FB68022B08D17B681B681A687B681B6860
:103DAC0042F480621A6007E07B681B681A687B68C3
:103DBC001B6842F400721A607B681B681A697B6886
:103DCC005B6AD2B21A707B685B6A5A1C7B685A6257
:103DDC007B685B8D9BB2013B9AB27B685A857B6892
:103DEC001B681A697B685B6AD2B21A707B685B6A63
:103DFC005A1C7B685A627B685B8D9BB2013B9AB202
:103E0C007B685A857B681B685A687B681B6822F440
:103E1C0040725A607B68202283F83D207B6893F8BF
:103E2C003E30DBB2402B0AD17B68002283F83E2067
:103E3C007B6800221A637868FFF7AFFC27E07B6889
:103E4C00002283F83E20FB68082B02D0FB68202B55
:103E5C0003D17B6800221A6302E07B6812221A638A
:103E6C007868FFF760FC12E07B681B681A697B6856
:103E7C005B6AD2B21A707B685B6A5A1C7B685A62A6
:103E8C007B685B8D9BB2013B9AB27B685A8500BF05
:103E9C001037BD4680BD80B483B000AF78607B68BE
:103EAC0093F83E30DBB2402B17D17B681B6D002B97
:103EBC0009D17B685B6CDBB21A467B681B6802F02D
:103ECC00FE021A6167E07B685B6CDBB243F00103B6
:103EDC00DAB27B681B681A615DE07B681B69B3F51D
:103EEC00804F33D17B6893F83D30DBB2212B09D165
:103EFC007B685B6CDBB21A467B681B6802F0FE02C7
:103F0C001A6108E07B685B6CDBB243F00103DAB248
:103F1C007B681B681A617B685B6B002B04D07B6829
:103F2C005B6B9B6A002B08D17B689B6B002B32D0A0
:103F3C007B689B6B9B6A002B2DD07B681B685A6837
:103F4C007B681B6842F400625A6024E07B681B6D3E
:103F5C00002B0ED17B685B6C9BB2DB11DBB203F0E8
:103F6C000603DBB263F00F03DAB27B681B681A61DD
:103F7C0011E07B681B6D012B0DD17B685B6C9BB2D8
:103F8C00DB11DBB203F00603DBB263F00E03DAB233
:103F9C007B681B681A6100BF0C37BD4680BC70473C
:103FAC0080B483B000AF78607B685B6CDAB27B68FE
:103FBC001B681A617B685B6B002B04D07B685B6BA6
:103FCC009B6A002B08D17B689B6B002B0CD07B6809
:103FDC009B6B9B6A002B07D07B681B685A687B68BD
:103FEC001B6842F400625A6000BF0C37BD4680BCAF
:103FFC00704780B491B000AF78607B6893F83E3026
:10400C0087F83F307B68DB6ABB637B681B6B7B6329
:10401C007B6893F83D30DBB2222B40F074817B68D7
:10402C001B6D002B0FD197F83F30402B0BD1002389
:10403C003B637B681B685B693B637B681B689B69A4
:10404C003B633B6B6BE17B681B6D002B1DD17B686D
:10405C001B69B3F5404F18D10023FB627B681B68CA
:10406C005B69FB627B681B689B69FB62FB6A7B6814
:10407C001B681A687B681B6842F480721A607B6844
:10408C001B6D5A1C7B681A6549E17B685B8D9BB282
:10409C00002B13D10023BB627B681B685B69BB627E
:1040AC007B681B689B69BB62BB6A7B681B681A6870
:1040BC007B681B6842F400721A6020E17B685B8DA0
:1040CC009BB2012B40F08A80BB6B13F5803F37D13C
:1040DC007B681B681A687B681B6822F480621A6014
:1040EC007B681B685B6803F40063B3F5006F13D146
:1040FC007B681B681A687B681B6822F480621A60F4
:10410C0000237B627B681B685B697B627B681B6836
:10411C009B697B627B6AF2E000233B627B681B68D5
:10412C005B693B627B681B689B693B623B6A7B6893
:10413C001B681A687B681B6842F400721A60DEE028
:10414C00BB6B082B2ED0BB6B202B2BD07B6B122B7D
:10415C0002D1BB6B012B25D1BB6B042B0ED0BB6BDF
:10416C00022B0BD0BB6B102B08D07B681B681A681A
:10417C007B681B6822F480621A6007E07B681B680E
:10418C001A687B681B6842F480621A600023FB612A
:10419C007B681B685B69FB617B681B689B69FB61C7
:1041AC00FB69ACE07B681B681A687B681B6822F4AF
:1041BC0080621A600023BB617B681B685B69BB6112
:1041CC007B681B689B69BB61BB697B681B681A6851
:1041DC007B681B6842F400721A6090E07B685B8D10
:1041EC009BB2022B58D1BB6B042B21D0BB6B022B87
:1041FC001ED0BB6B102B1BD07B681B681A687B68AE
:10420C001B6842F400621A6000237B617B681B68A8
:10421C005B697B617B681B689B697B617B697B68E5
:10422C001B681A687B681B6822F480621A6012E0B3
:10423C007B681B681A687B681B6842F480621A6092
:10424C0000233B617B681B685B693B617B681B6877
:10425C009B693B613B697B681B685B6803F400638B
:10426C00B3F5006F4BD1BB6B13F5803F0BD0BB6B21
:10427C00012B08D0BB6B082B05D0BB6B102B02D0CD
:10428C00BB6B202B3BD17B681B685A687B681B6817
:10429C0042F480525A6032E07B681B681A687B6873
:1042AC001B6842F480621A607B681B685B6803F4CD
:1042BC000063B3F5006F17D1BB6B13F5803F0BD0C8
:1042CC00BB6B012B08D0BB6B082B05D0BB6B102B29
:1042DC0002D0BB6B202B07D17B681B685A687B68AC
:1042EC001B6842F480525A600023FB607B681B6899
:1042FC005B69FB607B681B689B69FB60FB687B6888
:10430C0000221A650BE00023BB607B681B685B69AD
:10431C00BB607B681B689B69BB60BB68FFE700BF29
:10432C004437BD4680BC704780B584B000AF786020
:10433C007B6893F83D30FB737B685B8D9BB2002BE5
:10434C002BD07B685B6A1A787B681B681A617B6868
:10435C005B6A5A1C7B685A627B685B8D9BB2013B23
:10436C009AB27B685A857B685B8D9BB2002B14D10B
:10437C00FB7B292B11D17B681B685A687B681B68F7
:10438C0022F480625A607B6821221A637B6828229F
:10439C0083F83D207868FFF7CFF900BF1037BD4692
:1043AC0080BD80B483B000AF78607B685B8D9BB2BE
:1043BC00002B11D07B685B6A1A787B681B681A61CA
:1043CC007B685B6A5A1C7B685A627B685B8D9BB20C
:1043DC00013B9AB27B685A8500BF0C37BD4680BC46
:1043EC00704780B584B000AF78607B6893F83D303F
:1043FC00FB737B685B8D9BB2002B2CD07B681B689E
:10440C001A697B685B6AD2B21A707B685B6A5A1C49
:10441C007B685A627B685B8D9BB2013B9AB27B686E
:10442C005A857B685B8D9BB2002B14D1FB7B2A2BAE
:10443C0011D17B681B685A687B681B6822F4806208
:10444C005A607B6822221A637B68282283F83D20FD
:10445C007868FFF77AF900BF1037BD4680BD80B48D
:10446C0083B000AF78607B685B8D9BB2002B12D061
:10447C007B681B681A697B685B6AD2B21A707B68AE
:10448C005B6A5A1C7B685A627B685B8D9BB2013BF2
:10449C009AB27B685A8500BF0C37BD4680BC70470A
:1044AC0080B584B000AF786039600023FB737B6803
:1044BC0093F83D30DBB203F02803282B27D17B681F
:1044CC001B685A687B681B6822F480625A603B68E0
:1044DC009B0803F00103002B01D10123FB733B6804
:1044EC00DB0903F00103002B03D17B68DB68BB8184
:1044FC0002E07B689B69BB817B68002283F83C20CF
:10450C00BA89FB7B19467868FFF728F90EE000237F
:10451C00BB607B681B685B69BB607B681B689B69C5
:10452C00BB60BB687B68002283F83C2000BF10375F
:10453C00BD4680BD80B584B000AF78607B6893F8D1
:10454C003D30FB737B681B685A687B681B6822F4E0
:10455C00E0625A600023BB607B681B685B69BB60D0
:10456C007B681B681A687B681B6842F001021A6042
:10457C00BB687B681B681A687B681B6822F48062C6
:10458C001A607B681B685B6803F40063B3F5006F0B
:10459C0072D1FB7B222B02D0FB7B2A2B35D17B6883
:1045AC009B6B1B685B689AB27B685A857B685B8DDA
:1045BC009BB2002B05D07B681B6C43F004027B681C
:1045CC001A647B681B685A687B681B6822F400625B
:1045DC005A607B689B6B1846FEF7D2F80346012B9A
:1045EC0049D07B689B6B694A5A637B689B6B184606
:1045FC00FDF748FF0346002B3DD07B689B6B5B6B44
:10460C007A68926B1046984735E07B685B6B1B6849
:10461C005B689AB27B685A857B685B8D9BB2002B7A
:10462C0005D07B681B6C43F004027B681A647B68C2
:10463C001B685A687B681B6822F400625A607B68AE
:10464C005B6B1846FEF79CF80346012B14D07B6875
:10465C005B6B4E4A5A637B685B6B1846FDF712FF27
:10466C000346002B08D07B685B6B5B6B7A68526BE4
:10467C001046984700E000BF7B685B8D9BB2002B17
:10468C003ED07B681B685B6903F00403042B12D1DA
:10469C007B681B681A697B685B6AD2B21A707B688C
:1046AC005B6A5A1C7B685A627B685B8D9BB2013BD0
:1046BC009AB27B685A857B681B685B6903F0400380
:1046CC00402B12D17B681B681A697B685B6AD2B27B
:1046DC001A707B685B6A5A1C7B685A627B685B8DBC
:1046EC009BB2013B9AB27B685A857B685B8D9BB20F
:1046FC00002B05D07B681B6C43F004027B681A64AA
:10470C007B681B6C002B03D0786800F0B7F839E09D
:10471C00FB7B2A2B09D17B6800221A637B68282239
:10472C0083F83D207868FFF710F87B6893F83D30EC
:10473C00DBB2282B11D17B68154ADA627B68002228
:10474C001A637B68202283F83D207B68002283F863
:10475C003E207868FFF70FF814E07B681B6B222B68
:10476C0002D0FB7B222B0DD17B6800221A637B6865
:10477C00202283F83D207B68002283F83E20786855
:10478C00FEF7E3FF00BF1037BD4680BDF14B0008BC
:10479C000000FFFF80B584B000AF78607B6893F8B1
:1047AC003D30FB737B68DB6ABB60BB68082B02D0B7
:1047BC00BB68202B29D1FB7B282B26D17B682E4A6A
:1047CC00DA627B681B685A687B681B6822F4E062BB
:1047DC005A607B681B686FF480625A617B681B6847
:1047EC001A687B681B6822F480621A607B6800225E
:1047FC001A637B68202283F83D207B68002283F8B3
:10480C003E207868FEF7B7FF31E0FB7B212B29D1E6
:10481C007B68194ADA627B6821221A637B68202242
:10482C0083F83D207B68002283F83E207B681B6860
:10483C005A687B681B6822F4E0625A607B681B68CC
:10484C006FF480625A617B681B681A687B681B680E
:10485C0022F480621A607868FEF72AFC7868FEF70A
:10486C006BFF04E07B681B686FF480625A6100BFC9
:10487C001037BD4680BD00BF0000FFFF80B584B07F
:10488C0000AF78607B6893F83D30FB737B6893F8DE
:10489C003E30BB73BB7B102B02D0BB7B402B0AD1B1
:1048AC00FB7B222B07D17B681B681A687B681B6813
:1048BC0022F400621A60FB7B03F02803282B07D13B
:1048CC007B6800221A637B68282283F83D2015E060
:1048DC007B681B685B6803F40063B3F5006F0AD058
:1048EC00FB7B602B07D07B68202283F83D207B6804
:1048FC00002283F83E207B6800221A637B681B68C9
:10490C005B6803F40063B3F5006F62D17B681B68CE
:10491C005A687B681B6822F400625A607B685B6B88
:10492C0093F82130DBB2012B20D07B685B6B6A4A99
:10493C005A637B685B6B1846FDF7A4FD0346002B9E
:10494C0000F089807B681B681A687B681B6822F002
:10495C0001021A607B68202283F83D207B685B6B28
:10496C005B6B7A68526B1046984774E07B689B6B64
:10497C00594A5A637B689B6B1846FDF783FD0346C7
:10498C00002B68D07B681B685B6903F04003402BED
:10499C000BD17B681B681A697B685B6AD2B21A7090
:1049AC007B685B6A5A1C7B685A627B681B681A6856
:1049BC007B681B6822F001021A607B68202283F856
:1049CC003D207B689B6B5B6B7A68926B10469847BB
:1049DC0041E07B6893F83D30DBB2602B25D17B68DE
:1049EC00202283F83D207B6800221A647B681B68B8
:1049FC005B6903F04003402B0BD17B681B681A6981
:104A0C007B685B6AD2B21A707B685B6A5A1C7B68E3
:104A1C005A627B681B681A687B681B6822F001026B
:104A2C001A607868FEF7CBFE15E07B681B685B6943
:104A3C0003F04003402B0BD17B681B681A697B6821
:104A4C005B6AD2B21A707B685B6A5A1C7B685A62CA
:104A5C007868FEF7ABFE7B681B6CBB60BB6803F031
:104A6C000103002B0ED1BB6803F00203002B09D10C
:104A7C00BB6803F00403002B04D1BB6803F00803EC
:104A8C00002B07D07B681B685A687B681B6822F474
:104A9C00E0625A607B6893F83D30FB737B681B6C5B
:104AAC0003F00403042B13D1FB7B282B10D17B6860
:104ABC000A4ADA627B6800221A637B68202283F838
:104ACC003D207B68002283F83E207868FEF753FE79
:104ADC0000BF1037BD4680BDF14B00080000FFFF42
:104AEC0080B588B002AFF8607A603B600B467B8182
:104AFC00FB68DB6A7B617B69082B06D07B69012B29
:104B0C0003D07B6913F5803F08D1FB681B681A68DA
:104B1C00FB681B6842F480721A600BE0FB681B6B2D
:104B2C00122B07D1FB681B681A68FB681B6842F4E0
:104B3C0080721A603B6800937B6800224FF0011171
:104B4C00F86800F0F7F80346002B0DD0FB681B68E3
:104B5C001B6803F48073B3F5807F03D1FB684FF4BB
:104B6C0000721A64032335E0FB681B69B3F5804FB0
:104B7C0008D17B89DBB21A46FB681B6802F0FE0287
:104B8C001A611BE07B89DB11DBB203F00603DBB29D
:104B9C0063F00F03DAB2FB681B681A613B687A6832
:104BAC000E49F86800F040F90346002B01D00123B0
:104BBC0010E07B89DAB2FB681B681A613B687A6883
:104BCC000749F86800F030F90346002B01D00123A7
:104BDC0000E0002318461837BD4680BD08000100D0
:104BEC000200010080B586B000AF78600023FB6046
:104BFC007B685B6A7B617B6993F83D30FB744B4B44
:104C0C001B68DB084A4AA2FB03231A0A13469B00C3
:104C1C001344DA00D31AFB60FB68002B06D17B69C6
:104C2C001B6C43F020027B691A640AE0FB68013BB1
:104C3C00FB607B691B681B6803F40073B3F5007F92
:104C4C00EAD07B695B6B002B03D07B695B6B00222A
:104C5C009A627B699B6B002B03D07B699B6B002258
:104C6C009A627B691B681A687B691B6822F48062F4
:104C7C001A607B6900225A857B695B6B002B03D021
:104C8C007B695B6B00225A637B699B6B002B03D0A7
:104C9C007B699B6B00225A637B691B681A687B6972
:104CAC001B6822F001021A607B6993F83D30DBB27D
:104CBC00602B0ED17B69202283F83D207B6900227A
:104CCC0083F83E207B6900221A647869FEF777FD31
:104CDC0027E0FB7C03F02803282B17D17B691B688A
:104CEC001A687B691B6842F001021A607B691B68B9
:104CFC001A687B691B6842F480621A607B69002227
:104D0C001A637B69282283F83D2007E07B69202207
:104D1C0083F83D207B69002283F83E207869FEF7FA
:104D2C0045FD00BF1837BD4680BD00BF0400002004
:104D3C0089B5F81480B584B000AFF860B9603B60F9
:104D4C001346FB7148E03B68B3F1FF3F44D0FCF7DE
:104D5C0019FC0246BB69D31A3A689A4202D33B68E3
:104D6C00002B39D1BB681B0CDBB2012B0DD1FB68BE
:104D7C001B685B69DA43BB6813409BB2002B0CBF0A
:104D8C0001230023DBB21A460CE0FB681B689B690D
:104D9C00DA43BB6813409BB2002B0CBF01230023EA
:104DAC00DBB21A46FB799A4216D1FB6800221A63D1
:104DBC00FB68202283F83D20FB68002283F83E200C
:104DCC00FB681B6C43F02002FB681A64FB68002232
:104DDC0083F83C20012323E0BB681B0CDBB2012BC6
:104DEC000DD1FB681B685B69DA43BB6813409BB24F
:104DFC00002B0CBF01230023DBB21A460CE0FB682E
:104E0C001B689B69DA43BB6813409BB2002B0CBF39
:104E1C0001230023DBB21A46FB799A4293D000237C
:104E2C0018461037BD4680BD80B584B000AFF86021
:104E3C00B9607A603B6071E0FB681B685B6903F4E6
:104E4C008063B3F5806F23D1FB681B681A68FB681D
:104E5C001B6842F400721A60FB681B686FF4806276
:104E6C005A61FB6800221A63FB68202283F83D20FC
:104E7C00FB68002283F83E20FB681B6C43F00402A5
:104E8C00FB681A64FB68002283F83C20012367E06E
:104E9C007B68B3F1FF3F41D0FCF774FB02463B68E3
:104EAC00D31A7A689A4202D37B68002B36D1BB683E
:104EBC001B0CDBB2012B0CD1FB681B685B69DA4362
:104ECC00BB6813409BB2002B14BF01230023DBB241
:104EDC000BE0FB681B689B69DA43BB6813409BB211
:104EEC00002B14BF01230023DBB2002B16D0FB6870
:104EFC0000221A63FB68202283F83D20FB68002205
:104F0C0083F83E20FB681B6C43F02002FB681A649C
:104F1C00FB68002283F83C20012321E0BB681B0CBA
:104F2C00DBB2012B0CD1FB681B685B69DA43BB68F5
:104F3C0013409BB2002B14BF01230023DBB20BE008
:104F4C00FB681B689B69DA43BB6813409BB2002B60
:104F5C0014BF01230023DBB2002B7FF46DAF0023C1
:104F6C0018461037BD4680BD80B584B000AFF860E0
:104F7C00B9607A6034E0F86800F0B8F80346002BAA
:104F8C0001D0012334E0BB68B3F1FF3F28D0FCF71C
:104F9C00F9FA02467B68D31ABA689A4202D3BB6804
:104FAC00002B1DD1FB681B685B6903F08003802B11
:104FBC0016D0FB6800221A63FB68202283F83D2080
:104FCC00FB68002283F83E20FB681B6C43F0200238
:104FDC00FB681A64FB68002283F83C20012307E07D
:104FEC00FB681B685B6903F08003802BC3D1002333
:104FFC0018461037BD4680BD80B584B000AFF86050
:10500C00B9607A6034E0F86800F070F80346002B61
:10501C0001D0012334E0BB68B3F1FF3F28D0FCF78B
:10502C00B1FA02467B68D31ABA689A4202D3BB68BB
:10503C00002B1DD1FB681B685B6903F00403042B78
:10504C0016D0FB6800221A63FB68202283F83D20EF
:10505C00FB68002283F83E20FB681B6C43F02002A7
:10506C00FB681A64FB68002283F83C20012307E0EC
:10507C00FB681B685B6903F00403042BC3D100239A
:10508C0018461037BD4680BD80B485B000AF78603F
:10509C000023FB60134B1B68DB08134AA2FB0323A2
:1050AC001A0A13469B001344FB60FB68013BFB6030
:1050BC00FB68002B07D17B681B6C43F020027B68DC
:1050CC001A64012308E07B681B681B6803F40073F7
:1050DC00B3F5007FE9D0002318461437BD4680BCD9
:1050EC00704700BF0400002089B5F81480B483B069
:1050FC0000AF78607B681B685B6903F48063B3F571
:10510C00806F1BD17B681B686FF480625A617B686F
:10511C0000221A637B68202283F83D207B680022E2
:10512C0083F83E207B681B6C43F004027B681A6496
:10513C007B68002283F83C20012300E00023184602
:10514C000C37BD4680BC704780B483B000AF78602C
:10515C007B68DB6AB3F52A0F03D17B680122DA6224
:10516C0007E07B68DB6AB3F12A4F02D17B68082227
:10517C00DA6200BF0C37BD4680BC704780B586B084
:10518C0000AF78607B68002B01D1012372E27B6851
:10519C001B6803F00103002B00F08780924B5B68C7
:1051AC0003F00C03042B0CD08F4B5B6803F00C0347
:1051BC00082B12D18C4B5B6803F48033B3F5803F22
:1051CC000BD1894B1B6803F40033002B6CD07B682C
:1051DC005B68002B68D101234CE27B685B68B3F5FC
:1051EC00803F06D1804B1B687F4A43F480331360A9
:1051FC002EE07B685B68002B0CD17B4B1B687A4ADA
:10520C0023F480331360784B1B68774A23F4802394
:10521C0013601DE07B685B68B3F5A02F0CD1724B5B
:10522C001B68714A43F4802313606F4B1B686E4AF2
:10523C0043F4803313600BE06B4B1B686A4A23F416
:10524C0080331360684B1B68674A23F48023136018
:10525C007B685B68002B13D0FCF794F9386108E08D
:10526C00FCF790F902463B69D31A642B01D903234E
:10527C0000E25D4B1B6803F40033002BF0D014E00C
:10528C00FCF780F9386108E0FCF77CF902463B69D1
:10529C00D31A642B01D90323ECE1534B1B6803F4A1
:1052AC000033002BF0D100E000BF7B681B6803F0DB
:1052BC000203002B63D04C4B5B6803F00C03002BF8
:1052CC000BD0494B5B6803F00C03082B1CD1464BED
:1052DC005B6803F48033002B16D1434B1B6803F03F
:1052EC000203002B05D07B681B69012B01D0012325
:1052FC00C0E13D4B1B6823F0F8027B685B69DB0067
:10530C00394913430B603AE07B681B69002B20D0B2
:10531C00364B01221A60FCF735F9386108E0FCF7CE
:10532C0031F902463B69D31A022B01D90323A1E1BF
:10533C002D4B1B6803F00203002BF0D02A4B1B688B
:10534C0023F0F8027B685B69DB00274913430B6091
:10535C0015E0264B00221A60FCF714F9386108E0BE
:10536C00FCF710F902463B69D31A022B01D903232F
:10537C0080E11D4B1B6803F00203002BF0D17B680E
:10538C001B6803F00803002B3AD07B689B69002B49
:10539C0019D0174B01221A60FCF7F4F8386108E0B9
:1053AC00FCF7F0F802463B69D31A022B01D9032310
:1053BC0060E10D4B5B6A03F00203002BF0D001207F
:1053CC0000F0CEFA1CE00A4B00221A60FCF7DAF867
:1053DC0038610FE0FCF7D6F802463B69D31A022B72
:1053EC0008D9032346E100BF0010024000004242EE
:1053FC0080044242924B5B6A03F00203002BE9D11A
:10540C007B681B6803F00403002B00F0A6800023CC
:10541C00FB758B4BDB6903F08053002B0DD1884B54
:10542C00DB69874A43F08053D361854BDB6903F01A
:10543C008053BB60BB680123FB75824B1B6803F474
:10544C008073002B18D17F4B1B687E4A43F480730A
:10545C001360FCF797F8386108E0FCF793F8024604
:10546C003B69D31A642B01D9032303E1754B1B68E9
:10547C0003F48073002BF0D07B68DB68012B06D122
:10548C006F4B1B6A6E4A43F0010313622DE07B687D
:10549C00DB68002B0CD16A4B1B6A694A23F00103B1
:1054AC001362674B1B6A664A23F0040313621CE009
:1054BC007B68DB68052B0CD1614B1B6A604A43F09F
:1054CC00040313625E4B1B6A5D4A43F001031362D3
:1054DC000BE05B4B1B6A5A4A23F001031362584BD7
:1054EC001B6A574A23F0040313627B68DB68002BAA
:1054FC0015D0FCF747F838610AE0FCF743F8024690
:10550C003B69D31A41F28832934201D90323B1E0AB
:10551C004B4B1B6A03F00203002BEED014E0FCF79C
:10552C0031F838610AE0FCF72DF802463B69D31AD2
:10553C0041F28832934201D903239BE0404B1B6A12
:10554C0003F00203002BEED1FB7D012B05D13C4B6C
:10555C00DB693B4A23F08053D3617B68DB69002B0A
:10556C0000F08780364B5B6803F00C03082B61D08E
:10557C007B68DB69022B46D1334B00221A60FCF7A7
:10558C0001F8386108E0FBF7FDFF02463B69D31ACE
:10559C00022B01D903236DE0294B1B6803F0007328
:1055AC00002BF0D17B681B6AB3F5803F08D1244BEC
:1055BC005B6823F400327B689B68214913434B6082
:1055CC001F4B5B6823F474127B68196A7B685B6AF7
:1055DC000B431B4913434B601B4B01221A60FBF717
:1055EC00D1FF386108E0FBF7CDFF02463B69D31AC7
:1055FC00022B01D903233DE0114B1B6803F0007310
:10560C00002BF0D035E0104B00221A60FBF7BAFFEC
:10561C00386108E0FBF7B6FF02463B69D31A022B50
:10562C0001D9032326E0064B1B6803F00073002B03
:10563C00F0D11EE07B68DB69012B07D1012319E057
:10564C000010024000700040600042420B4B5B684F
:10565C00FB60FB6803F480327B681B6A9A4206D1BC
:10566C00FB6803F470127B685B6A9A4201D00123D9
:10567C0000E0002318461837BD4680BD00100240DC
:10568C0080B584B000AF786039607B68002B01D1A5
:10569C000123D0E06A4B1B6803F007033A689A4277
:1056AC0010D9674B1B6823F0070265493B6813430D
:1056BC000B60634B1B6803F007033A689A4201D0F6
:1056CC000123B8E07B681B6803F00203002B20D099
:1056DC007B681B6803F00403002B05D0594B5B68F7
:1056EC00584A43F4E06353607B681B6803F008037B
:1056FC00002B05D0534B5B68524A43F46053536004
:10570C00504B5B6823F0F0027B689B684D49134358
:10571C004B607B681B6803F00103002B40D07B6857
:10572C005B68012B07D1474B1B6803F40033002B3C
:10573C0015D101237FE07B685B68022B07D1414BBD
:10574C001B6803F00073002B09D1012373E03D4B60
:10575C001B6803F00203002B01D101236BE0394BD2
:10576C005B6823F003027B685B68364913434B602C
:10577C00FBF708FFF8600AE0FBF704FF0246FB6842
:10578C00D31A41F28832934201D9032353E02D4BB3
:10579C005B6803F00C027B685B689B009A42EBD160
:1057AC00274B1B6803F007033A689A4210D2244B2C
:1057BC001B6823F0070222493B6813430B60204B04
:1057CC001B6803F007033A689A4201D0012332E0C8
:1057DC007B681B6803F00403002B08D0194B5B6833
:1057EC0023F4E0627B68DB68164913434B607B68EB
:1057FC001B6803F00803002B09D0124B5B6823F4E1
:10580C0060527B681B69DB000E4913434B6000F050
:10581C0021F802460B4B5B681B0903F00F030A4986
:10582C00CB5C22FA03F3094A1360094B1B68184638
:10583C00FBF766FE002318461037BD4680BD00BF3F
:10584C000020024000100240787D00080400002077
:10585C000800002080B487B000AF0023FB60002359
:10586C00BB6000237B6100237B6000233B611E4BEC
:10587C005B68FB60FB6803F00C03042B02D0082B65
:10588C0003D027E0194B3B6127E0FB689B0C03F02E
:10589C000F03174AD35C7B60FB6803F48033002B47
:1058AC0010D0114B5B685B0C03F00103114AD35C05
:1058BC00BB607B680D4A03FB02F2BB68B2FBF3F3DF
:1058CC007B6104E07B680C4A02FB03F37B617B6920
:1058DC003B6102E0054B3B6100BF3B6918461C373E
:1058EC00BD4680BC704700BF0010024000127A0019
:1058FC00907D0008A07D000800093D0080B400AF39
:10590C00024B1B681846BD4680BC70470400002043
:10591C0080B500AFFFF7F2FF0246054B5B681B0A30
:10592C0003F007030349CB5C22FA03F3184680BD4E
:10593C0000100240887D000880B500AFFFF7DEFF45
:10594C000246054B5B68DB0A03F007030349CB5C9B
:10595C0022FA03F3184680BD00100240887D00082F
:10596C0080B485B000AF78600A4B1B680A4AA2FB72
:10597C0003235B0A7A6802FB03F3FB6000BFFB683E
:10598C005A1EFA60002BF9D100BF00BF1437BD4678
:10599C0080BC704704000020D34D621080B586B0E7
:1059AC0000AF786000233B610023FB607B681B68C1
:1059BC0003F00103002B7DD00023FB754F4BDB69FB
:1059CC0003F08053002B0DD14C4BDB694B4A43F059
:1059DC008053D361494BDB6903F08053BB60BB68D8
:1059EC000123FB75464B1B6803F48073002B18D105
:1059FC00434B1B68424A43F480731360FBF7C2FDB0
:105A0C00386108E0FBF7BEFD02463B69D31A642BF4
:105A1C0001D903236DE03A4B1B6803F48073002B10
:105A2C00F0D0364B1B6A03F44073FB60FB68002B11
:105A3C002ED07B685B6803F44073FA689A4227D0D7
:105A4C002E4B1B6A23F44073FB602E4B01221A6011
:105A5C002C4B00221A60294AFB681362FB6803F086
:105A6C000103002B14D0FBF78DFD38610AE0FBF726
:105A7C0089FD02463B69D31A41F28832934201D91F
:105A8C00032336E01D4B1B6A03F00203002BEED000
:105A9C001A4B1B6A23F440727B685B6817491343EB
:105AAC000B62FB7D012B05D1144BDB69134A23F0F0
:105ABC008053D3617B681B6803F00203002B08D072
:105ACC000E4B5B6823F440427B689B680B49134385
