:020000040800F2
:1000000000500020B51B0008051800080D18000856
:10001000151800081D180008251800080000000029
:100020000000000000000000000000002D18000883
:100030003918000800000000451800085118000891
:10004000FD1B0008FD1B0008FD1B0008FD1B000830
:100050005D18000869180008FD1B0008FD1B00085A
:10006000FD1B0008FD1B0008FD1B0008751800089B
:10007000891800089D180008FD1B0008FD1B0008DA
:10008000B1180008C5180008D9180008FD1B0008A1
:10009000FD1B0008FD1B0008FD1B0008FD1B0008E0
:1000A000FD1B0008ED180008FD1B0008FD1B0008E3
:1000B000FD1B0008FD1B0008FD1B000801190008BE
:1000C00015190008FD1B0008FD1B00082919000870
:1000D000FD1B00083D190008FD1B0008FD1B000862
:1000E000FD1B0008FD1B0008FD1B000800000000B0
:1000F0000000000000000000000000000000000000
:0C01000000000000000000005FF808F1A3
:10010C0010B5054C237833B9044B13B10448AFF345
:10011C0000800123237010BD780000200000000037
:10012C00E08F000808B5034B1BB103490348AFF33C
:10013C00008008BD000000007C000020E08F00085B
:10014C00034613F8012B002AFBD1181A013870470B
:10015C0080B584B000AF3B1D00221A605A609A60D3
:10016C003D4B3E4A1A603C4B4FF480729A603A4BBE
:10017C0000221A73384B00221A75374B4FF4602249
:10018C00DA61354B00225A60334B06221A61324831
:10019C0001F0B6FD0346002B01D000F016FE002343
:1001AC007B600123BB600123FB603B1D19462A4881
:1001BC0002F036F80346002B01D000F006FE0123B6
:1001CC007B600223BB603B1D1946234802F028F8D4
:1001DC000346002B01D000F0F8FD02237B600323C3
:1001EC00BB603B1D19461C4802F01AF80346002B55
:1001FC0001D000F0EAFD03237B600423BB603B1DB0
:10020C001946154802F00CF80346002B01D000F0FB
:10021C00DCFD10237B600523BB600423FB603B1DCE
:10022C0019460D4801F0FCFF0346002B01D000F0ED
:10023C00CCFD11237B600623BB603B1D1946064891
:10024C0001F0EEFF0346002B01D000F0BEFD00BF15
:10025C001037BD4680BD00BF940000200024014033
:10026C0080B588B000AF786007F1100300221A60E7
:10027C005A609A60DA607B681B682C4A934251D1B1
:10028C002B4B9B692A4A43F400739361284B9B695F
:10029C0003F40073FB60FB68254B9B69244A43F015
:1002AC0004039361224B9B6903F00403BB60BB689E
:1002BC000F233B6103237B6107F1100319461D4893
:1002CC0002F0A6FF1C4B1D4A1A601B4B00225A6001
:1002DC00194B00229A60184B8022DA60164B4FF4AF
:1002EC0080721A61144B4FF480625A61124B0022D7
:1002FC009A61114B0022DA610F4802F05DFB034654
:10030C00002B01D000F061FD7B680B4A1A620A4A8F
:10031C007B68536200220021122002F00AFB12209B
:10032C0002F023FB00BF2037BD4680BD00240140F6
:10033C000010024000080140C400002008000240E8
:10034C0080B582B000AF1C4B5B691B4A43F00103C4
:10035C005361194B5B6903F001037B607B680022DE
:10036C0000210B2002F0E5FA0B2002F0FEFA00222D
:10037C0000210C2002F0DDFA0C2002F0F6FA00222B
:10038C0000210D2002F0D5FA0D2002F0EEFA002229
:10039C000021102002F0CDFA102002F0E6FA002223
:1003AC000021112002F0C5FA112002F0DEFA00BF84
:1003BC000837BD4680BD00BF0010024080B588B034
:1003CC0000AF07F1100300221A605A609A60DA60DD
:1003DC00504B9B694F4A43F0100393614D4B9B6903
:1003EC0003F01003FB60FB684A4B9B69494A43F0DE
:1003FC0020039361474B9B6903F02003BB60BB68F0
:10040C00444B9B69434A43F004039361414B9B6902
:10041C0003F004037B607B683E4B9B693D4A43F0D1
:10042C00080393613B4B9B6903F008033B603B68FB
:10043C0000224FF40051384803F085F801220321C3
:10044C00364803F080F800224FF48071334803F0F3
:10045C007AF84FF400533B6101237B610023BB61AD
:10046C000223FB6107F1100319462B4802F0D0FE62
:10047C0010233B6100237B610123BB6107F1100357
:10048C001946274802F0C4FE03233B6101237B611C
:10049C000023BB610323FB6107F1100319461F48BE
:1004AC0002F0B6FE4FF480633B6103237B6107F1DE
:1004BC0010031946194802F0ABFE4FF218033B61CA
:1004CC0000237B610123BB6107F11003194613481C
:1004DC0002F09EFE4FF480733B6100237B6100238E
:1004EC00BB6107F1100319460D4802F091FE4FF461
:1004FC0080733B6111237B610123BB610223FB6190
:10050C0007F110031946054802F082FE00BF2037A0
:10051C00BD4680BD0010024000100140000C01409F
:10052C000008014080B500AF124B134A1A60114B02
:10053C00124A5A600F4B00229A600E4B0022DA606E
:10054C000C4B4FF480421A610A4B00225A61094B42
:10055C0000229A61074B0022DA61064B00221A62D4
:10056C00044803F021F80346002B01D000F02DFCC9
:10057C0000BF80BD0801002000540040801A060016
:10058C0080B588B000AF786007F1100300221A60C4
:10059C005A609A60DA607B681B68454A934240F067
:1005AC008280444B9B69434A43F008039361414B5F
:1005BC009B6903F00803FB60FB68C0233B611223BB
:1005CC007B610323FB6107F1100319463A4802F0E3
:1005DC001FFE384BDB69374A43F40013D361354BAC
:1005EC00DB6903F40013BB60BB68344B344A1A60FC
:1005FC00324B00225A60314B00229A602F4B8022E2
:10060C00DA602E4B00221A612C4B00225A612B4BC4
:10061C0000229A61294B4FF48052DA61274802F08C
:10062C00CBF90346002B01D000F0CFFB7B68234AAB
:10063C009A63224A7B685362224B234A1A60214BED
:10064C0010225A601F4B00229A601E4B8022DA60E7
:10065C001C4B00221A611B4B00225A61194B0022C1
:10066C009A61184B4FF48052DA61164802F0A4F9E3
:10067C000346002B01D000F0A8FB7B68114A5A639B
:10068C00104A7B685362002200211F2002F051F9AE
:10069C001F2002F06AF900220021202002F049F903
:1006AC00202002F062F900BF2037BD4680BD00BF9C
:1006BC000054004000100240000C01405C0100207E
:1006CC0080000240A00100206C00024080B584B084
:1006DC0000AF7860084611461A4603467B800B46ED
:1006EC007B7013463B707B783B733B787B737B88CA
:1006FC005B0099B207F10C020223074803F0ACF837
:10070C0000BF054803F04AFC0346202BF9D100BF7B
:10071C0000BF1037BD4680BD080100202DE9F04315
:10072C0089B000AFF8607B600B467B8113467B720F
:10073C006B461E4697F84030591C4B1EBB610A464F
:10074C000023904699464FF000024FF000034FEA09
:10075C00C90343EA58734FEAC8020A4600231446F9
:10076C001D464FF000024FF00003EB0043EA5473B8
:10077C00E2000B460733DB08DB00ADEB030D6B46E9
:10078C0000337B617B697A7A1A700023FB770AE06D
:10079C00FB7F7A681A44FB7F013311787A69D15454
:1007AC00FB7F0133FB77FA7F97F840309A42EFD307
:1007BC007B895B0099B297F840309BB201339BB2B6
:1007CC007A69084803F048F800BF064803F0E6FBD6
:1007DC000346202BF9D1B54600BF2437BD46BDE8F2
:1007EC00F08300BF0801002080B500AF4FF48051AA
:1007FC00534802F091FE0346002B21D118E04FF430
:10080C0080514F4802F088FE0346002B10D14D4B0F
:10081C001B78002B06D14C4B01221A70494B01223C
:10082C001A7005E0484B02221A70464B00221A70CF
:10083C004FF48051424802F06FFE0346002BDED08D
:10084C004FF400513E4802F067FE0346002B21D1C5
:10085C0018E04FF400513A4802F05EFE0346002BBC
:10086C0010D13A4B1B78002B06D1374B03221A7050
:10087C00364B01221A7005E0334B04221A70334BAD
:10088C0000221A704FF400512D4802F045FE034629
:10089C00002BDED04FF48041294802F03DFE034688
:1008AC00002B21D118E04FF48041254802F034FE92
:1008BC000346002B10D1264B1B78002B06D1224B64
:1008CC0005221A70224B01221A7005E01E4B0622DB
:1008DC001A701F4B00221A704FF48041184802F016
:1008EC001BFE0346002BDED04FF40041144802F0EF
:1008FC0013FE0346002B21D118E04FF400411048A1
:10090C0002F00AFE0346002B10D1124B1B78002B71
:10091C0006D10D4B07221A700E4B01221A7005E0FE
:10092C00094B08221A700B4B00221A704FF400412D
:10093C00034802F0F1FD0346002BDED000BF80BD62
:10094C00000C0140E4010020E8010020E50100203A
:10095C00E6010020E701002090B58BB004AF786071
:10096C007B68604A934240F0B9800023FB7567E0D6
:10097C00F87DFA7DF97D5C4C0B46DB000B445B008B
:10098C00234410331B781C46584B33F8103098B264
:10099C0055491346DB0013442344024621F8132027
:1009AC00FA7D51491346DB0013445B000B441033B2
:1009BC001B7801335A4203F0070302F0070258BFB9
:1009CC005342FA7DD8B248491346DB0013445B000E
:1009DC000B44103302461A7000233B610023FB7357
:1009EC000FE0FA7DF97B40481346DB0013440B44BF
:1009FC0030F813301A463B6913443B61FB7B0133DF
:100A0C00FB73FB7B072BECD93B69DA08FB7D91B2BE
:100A1C00374A22F81310FB7D354A32F813309BB25B
:100A2C00A3F50063002BB8BF5B42C82B05DCFB7D34
:100A3C002F4A4FF4006122F81310FB7D0133FB7534
:100A4C00FB7D032B94D92A4B1B889BB2B3F5006F0B
:100A5C0002D1284B01221A70264B1B78012B3DD159
:100A6C00254B1B781A46224B1A81214B1B889BB2B3
:100A7C001C461F4B5B889BB21A461D4BDB889BB2F6
:100A8C0019461B4B1B899BB21846194B9B889BB272
:100A9C0003930290019100922346184A142118489E
:100AAC0007F0B2FD124B1B889BB21A46104B5B88A9
:100ABC009BB21449144807F0DDFD0D4B9B889BB28B
:100ACC001A460B4BDB889BB21946094B1B899BB210
:100ADC0000930B460D490E4807F0CCFD00BF1C37A8
:100AEC00BD4690BD94000020A00200208C02002086
:100AFC0094020020E8020020E8010020F88F000892
:100B0C00EC01002008900008000200201090000862
:100B1C003402002080B483B000AF78607B681B681F
:100B2C00074A934206D1074B1B78DBB20133DAB28A
:100B3C00044B1A7000BF0C37BD4680BC704700BF19
:100B4C00002C01409C02002080B584B002AF002331
:100B5C00FB7101F04FF801F022FF00F0DBF8FFF71A
:100B6C002DFCFFF7EDFBFFF7DDFCFFF7F1FA00F0D2
:100B7C0021FD00F09BFF00F021FF584806F0DEFA43
:100B8C0048220021564807F097FD564801F042FDD7
:100B9C00544B1B689A68534B1B6842F004029A60D2
:100BAC0000BF504B1B689B6803F00403002BF8D16B
:100BBC0007F098FB002300930C234B4A03212A20B7
:100BCC0007F0D2FC00F074FC00BF00F0B1FA034651
:100BDC00002BFAD000F088FC002000F039FB042236
:100BEC004249404801F064F9FFF7FEFD404B1B7889
:100BFC00DBB2002B2BD03F48FFF7A2FA0346DBB247
:100C0C0019463C4800F07CFB0346202B1CD03A4B89
:100C1C001B68112B06D9394B1B780133DAB2374BD1
:100C2C001A7002E0354B00221A70344B1B78022BE1
:100C3C000AD920220021324807F03EFD2F4B00221A
:100C4C001A70304B01221A70294B00221A702A4B51
:100C5C001B68112B20D92B4B1B78012B1CD14FF46B
:100C6C000051294802F087FC012000F0F1FA00BF86
:100C7C00234800F0C5FB0346002BF9D0002300935A
:100C8C000C231F4A0221002007F06EFC002000F00C
:100C9C00DFFA1C4B00221A70002300930C231B4A12
:100CAC000021002007F060FC002300930C23184A5D
:100CBC000021402007F058FC0F4B1B680E2B8ED9DF
:100CCC00FB79002B8BD107F04FFB0123FB7100222A
:100CDC004FF400510C4802F036FC80E7D0030020A2
:100CEC00A0020020940000201C9000088C02002020
:100CFC009C020020EC0100208804002089020020C6
:100D0C006802002088020020001001400002002030
:100D1C003402002080B594B000AF07F128032822DC
:100D2C000021184607F0C8FC07F1140300221A60D2
:100D3C005A609A60DA601A613B1D00221A605A6090
:100D4C009A60DA600123BB624FF48033FB620023AC
:100D5C003B630123BB6302237B644FF48033BB648E
:100D6C004FF4C013FB6407F12803184604F0B6FCDB
:100D7C000346002B01D000F028F80F237B610223DF
:100D8C00BB610023FB614FF480633B6200237B62F9
:100D9C0007F114030221184604F022FF0346002B2E
:100DAC0001D000F012F802237B604FF44043FB604B
:100DBC003B1D184605F0A2F80346002B01D000F0AD
:100DCC0004F800BF5037BD4680BD80B400AF72B68A
:100DDC0000BF00BFFDE7000080B586B002AF034640
:100DEC00FB7107F10F02F91D4FF0FF330093012344
:100DFC00034805F073FAFB7B18461037BD4680BDDF
:100E0C00EC02002080B584B000AF0346FB7107F103
:100E1C000E02F91D01230B4805F0BCFC0346FB73C5
:100E2C00FB7B002B01D0FFF7D0FF00BF054805F07E
:100E3C00D2FE0346012BF9D1BB7B18461037BD46B9
:100E4C0080BD00BFEC02002080B586B000AFF8601A
:100E5C00B9601346FB80FB88BA68F968084805F04E
:100E6C0099FC0346FB7500BF054805F0B4FE03462C
:100E7C00012BF9D1FB7D18461837BD4680BD00BF4C
:100E8C00EC02002080B584B000AF0346FB71FB7907
:100E9C003B73FF237B7300233B81002202210E480E
:100EAC0002F051FB07F1080207F10C0102230B4879
:100EBC0005F070FC00BF094805F08DFE0346012BC0
:100ECC00F9D101220221044802F03DFB7B7A18463D
:100EDC001037BD4680BD00BF000C0140EC02002065
:100EEC0080B592B000AF03463960FB711346BB71FD
:100EFC00FB7987F82830BA7907F128030133FF21F1
:100F0C00184607F0D9FB002202210F4802F01BFB08
:100F1C00BB799BB201339AB207F1080107F12803A0
:100F2C001846FFF791FFBA7907F108030133194608
:100F3C00386807F0F5FB01220221034802F003FB9D
:100F4C0000BF4837BD4680BD000C014080B584B061
:100F5C0000AF03460A46FB711346BB71FB7943F0A5
:100F6C002003DBB23B73BB797B73002202210D485B
:100F7C0002F0E9FA07F10C03022219460A4805F0BF
:100F8C0057FB00BF084805F026FE0346012BF9D19C
:100F9C0001220221034802F0D6FA00BF1037BD46E9
:100FAC0080BD00BF000C0140EC02002080B582B077
:100FBC0000AF00220221094802F0C5FA0720FFF712
:100FCC000BFF0346FB7101220221044802F0BBFA1D
:100FDC00FB7918460837BD4680BD00BF000C0140A8
:100FEC0080B584B000AF0346FB71FB7903F070034E
:100FFC00FB71FFF7DBFF0346FB73002202210C4859
:10100C0002F0A1FA2720FFF7E7FEFA7BFB791343E6
:10101C00DBB21846FFF7E0FE01220221044802F081
:10102C0092FAFFF7C3FF034618461037BD4680BD42
:10103C00000C014080B584B000AF78600B46FB70AB
:10104C00FB78052B28BF0523FB7030233B72FA7805
:10105C0007F1080301337968184607F061FB002299
:10106C0002210E4802F06FFAFB789BB201339AB260
:10107C0007F1080319460A4805F0DAFA00BF0848D8
:10108C0005F0A9FD0346012BF9D1012202210348E9
:10109C0002F059FA00BF1037BD4680BD000C01406C
:1010AC00EC02002080B584B000AF03463960FB71C0
:1010BC001346BB71BB79052B28BF0523BB71FB798C
:1010CC00052B28BF0523FB71FB790A33DBB25BB21E
:1010DC0043F020035BB2DBB23B72BA7907F1080331
:1010EC0001333968184607F01BFB002202210E4819
:1010FC0002F029FABB799BB201339AB207F10803CB
:10110C0019460A4805F094FA00BF084805F063FD3B
:10111C000346012BF9D101220221034802F013FAF4
:10112C0000BF1037BD4680BD000C0140EC02002012
:10113C0080B588B000AF424A07F1100392E8030073
:10114C0018600433197000F0ADFDB86130233B72A8
:10115C0007F1090307F110021068186012791A716F
:10116C0000220221374802F0EEF907F108030622AB
:10117C001946354805F05CFA00BF334805F02BFDE5
:10118C000346012BF9D1012202212E4802F0DBF992
:10119C0010233B7207F1080301330522FF21184687
:1011AC0007F08AFA00220221264802F0CCF93A46CE
:1011BC0007F108010623244805F0ECFA00BF224889
:1011CC0005F009FD0346012BF9D1012202211D482E
:1011DC0002F0B9F90023FB770FE0FB7F20333B448F
:1011EC0013F8102CFB7F013320333B4413F8203CC5
:1011FC009A4206D1FB7F0133FB77FB7F042BECD9A2
:10120C0000E000BFFB7F052B01D1012313E000F0B0
:10121C0049FD0246BB69D31A41F28832934201D987
:10122C00002308E04FF40051084802F0A4F96420B0
:10123C0000F042FD8AE718462037BD4680BD00BF4E
:10124C0040900008000C0140EC020020001001400E
:10125C0080B584B000AF0346FB7100233B73FF23C2
:10126C007B7300220221244802F06DF907F1080279
:10127C0007F10C010223214805F08CFA00BF1F482E
:10128C0005F0A9FC0346012BF9D1012202211A48D1
:10129C0002F059F97B7AFB73FB79002B04D1FB7BB1
:1012AC0023F00103FB7306E0FB79012B03D1FB7BDD
:1012BC0043F00103FB7320233B73FB7B7B73002206
:1012CC0002210D4802F03FF907F10C0302221946E6
:1012DC000A4805F0ADF900BF084805F07CFC034650
:1012EC00012BF9D101220221034802F02CF900BF95
:1012FC001037BD4680BD00BF000C0140EC02002041
:10130C0080B586B000AF78600B46FB700023FB7590
:10131C0000F0C8FC3861A023FB7300220221354881
:10132C0002F011F9E120FFF76DFD01220221314895
:10133C0002F009F9002201212E4802F004F90022E2
:10134C0002212C4802F0FFF8FB7B1846FFF75AFDF0
:10135C00FB789BB21A467968274805F069F900BFFB
:10136C00254805F038FC0346012BF9D10122022156
:10137C00204802F0E8F8012201211E4802F0E3F8AF
:10138C0011E000F08FFC02463B69D31A642B07D99D
:10139C0000F08EF800F0A8F80020FFF759FF08E0E5
:1013AC00012000F089FC154B9B6803F01003102BF7
:1013BC00E7D00720FFF766FD0346FB75FB7D19465A
:1013CC000720FFF7C3FDFB7D03F01003002B05D0B6
:1013DC00FF21E120FFF7BAFD102307E0FB7D03F0AE
:1013EC002003002B01D0202300E0FF2318461837E0
:1013FC00BD4680BD000C0140EC02002000080140FD
:10140C0080B586B000AF78600023FB7500F04AFC15
:10141C0038610023FB7300220221234802F093F869
:10142C00E220FFF7EFFC012202211F4802F08BF8AB
:10143C000EE000F037FC02463B69D31AC82B07D9E3
:10144C0000F036F800F050F80120FFF701FF05E03E
:10145C00164B9B6803F01003102BEAD00720FFF704
:10146C0011FD0346FB75FB7D19460720FFF76EFD4A
:10147C00FB7D03F04003002B10D06020FFF702FD32
:10148C000346FB73FB7B1A4679686120FFF728FD46
:10149C00FF21E220FFF75AFDFB7B00E000231846FA
:1014AC001837BD4680BD00BF000C0140000801404C
:1014BC0080B500AF01220121094802F044F8012255
:1014CC001021084802F03FF800220121044802F0E4
:1014DC003AF801220221024802F035F800BF80BD23
:1014EC00000C01400008014080B584B000AF2D4ACB
:1014FC003B1D92E80300186004331970012201218E
:10150C00294802F020F87020FFF76AFD0023FB60E9
:10151C0036E0264AFB6812F8133043F02003DBB2A6
:10152C003B70224AFB685B0013445B787B700022A3
:10153C0002211D4802F007F83B46022219461C48BE
:10154C0005F076F800BF1A4805F045FB0346012B61
:10155C00F9D101220221144801F0F5FF134AFB686E
:10156C0012F81330002B05D0104AFB6812F8133018
:10157C00062B02D1012000F09FFBFB680133FB60BE
:10158C00FB68082BC5D93B1D05211846FFF752FDFA
:10159C003B1D052219460020FFF784FD00BF1037C4
:1015AC00BD4680BD48900008000C014050900008DA
:1015BC00EC02002080B500AF174B184A1A60164B8E
:1015CC004FF482725A60144B00229A60124B002224
:1015DC00DA60114B00221A610F4B00225A610E4B3C
:1015EC004FF400729A610C4B1822DA610A4B0022FC
:1015FC001A62094B00225A62074B00229A62064B70
:10160C000A22DA62044804F0E5FD0346002B01D0FF
:10161C00FFF7DBFB00BF80BDEC0200200030014077
:10162C0080B588B000AF786007F1100300221A6013
:10163C005A609A60DA607B681B68474A934240F0B4
:10164C008680464B9B69454A43F480539361434BD8
:10165C009B6903F48053FB60FB68404B9B693F4ADA
:10166C0043F0040393613D4B9B6903F00403BB609F
:10167C00BB68A0233B6102237B610323FB6107F161
:10168C0010031946364801F0C3FD40233B6100238B
:10169C007B610023BB6107F110031946304801F050
:1016AC00B7FD304B304A1A602E4B00225A602D4B3E
:1016BC0000229A602B4B8022DA602A4B00221A619E
:1016CC00284B00225A61274B00229A61254B4FF47C
:1016DC000052DA61234801F06FF90346002B01D068
:1016EC00FFF773FB7B681F4ADA641E4A7B68536200
:1016FC001E4B1F4A1A601D4B10225A601B4B0022B6
:10170C009A601A4B8022DA60184B00221A61174B30
:10171C0000225A61154B00229A61144B4FF400526F
:10172C00DA61124801F048F90346002B01D0FFF7AB
:10173C004CFB7B680D4A9A640C4A7B68536200220E
:10174C000021232001F0F5F8232001F00EF900BF51
:10175C002037BD4680BD00BF003001400010024064
:10176C0000080140440300201C00024088030020B4
:10177C003000024080B584B000AF1D4B9B691C4A01
:10178C0043F0010393611A4B9B6903F00103BB60A7
:10179C00BB68174BDB69164A43F08053D361144B7B
:1017AC00DB6903F080537B607B68002200210420FE
:1017BC0001F0BFF8042001F0D8F800220021052028
:1017CC0001F0B7F8052001F0D0F80A4B5B68FB601C
:1017DC00FB6823F0E063FB60FB6843F00073FB6085
:1017EC00044AFB68536000BF1037BD4680BD00BF84
:1017FC00001002400000014080B400AF00BFFDE7C4
:10180C0080B400AF00BFFDE780B400AF00BFFDE7C0
:10181C0080B400AF00BFFDE780B400AF00BFFDE7B0
:10182C0080B400AF00BFBD4680BC704780B400AF31
:10183C0000BFBD4680BC704780B400AF00BFBD4642
:10184C0080BC704780B500AF00F01AFA00BF80BDB5
:10185C0080B500AF01F05EFB00BF80BD80B400AF6F
:10186C0000BFBD4680BC704780B500AF024801F098
:10187C0011FA00BF80BD00BFC400002080B500AFCE
:10188C00024801F007FA00BF80BD00BF44030020EE
:10189C0080B500AF024801F0FDF900BF80BD00BF6C
:1018AC008803002080B500AF024801F0F3F900BFB7
:1018BC0080BD00BFA001002080B500AF024801F040
:1018CC00E9F900BF80BD00BF5C01002080B500AF0E
:1018DC00024800F0CBFB00BF80BD00BF940000208D
:1018EC0080B500AF024805F07BFC00BF80BD00BF97
:1018FC00D003002080B500AF024802F0D1F800BF41
:10190C0080BD00BF0801002080B500AF024802F086
:10191C0038FA00BF80BD00BF0801002080B500AFC1
:10192C00024805F033F800BF80BD00BFEC02002078
:10193C0080B500AF024805F0F3FF00BF80BD00BFCB
:10194C001804002080B586B000AF7860144A154B9F
:10195C00D31A7B617B693B61134B1B68002B02D153
:10196C00114B124A1A60104B1A687B6813443A697F
:10197C009A4207D206F0A8FE03460C221A604FF0DA
:10198C00FF3309E0084B1B68FB60074B1A687B6848
:10199C001344054A1360FB6818461837BD4680BDD2
:1019AC000050002000040000CC030020D8050020CB
:1019BC0080B400AF00BFBD4680BC704780B586B018
:1019CC0000AF07F1080300221A605A609A60DA60CF
:1019DC003B4600221A605A601F4B204A1A601E4B6D
:1019EC0041F6FF025A601C4B00229A601A4B40F2DF
:1019FC00E732DA60184B00221A61174B00225A6149
:101A0C00154B80229A61144805F049FB0346002BC4
:101A1C0001D0FFF7DAF94FF48053BB6007F10803EC
:101A2C0019460D4805F0CCFC0346002B01D0FFF7FE
:101A3C00CCF900233B6000237B603B4619460648EB
:101A4C0005F0AEFE0346002B01D0FFF7BEF900BF38
:101A5C001837BD4680BD00BFD0030020002C0140CC
:101A6C0080B584B000AF78607B681B680D4A9342E8
:101A7C0013D10D4B9B690C4A43F4006393610A4BE1
:101A8C009B6903F40063FB60FB68002200211920B2
:101A9C0000F04FFF192000F068FF00BF1037BD4663
:101AAC0080BD00BF002C01400010024080B500AF8B
:101ABC00114B124A1A60104B4FF416525A600E4BCF
:101ACC0000229A600C4B0022DA600B4B00221A6148
:101ADC00094B0C225A61084B00229A61064B0022DA
:101AEC00DA61054805F0CCFE0346002B01D0FFF768
:101AFC006CF900BF80BD00BF180400200038014005
:101B0C0080B588B000AF786007F1100300221A602E
:101B1C005A609A60DA607B681B68204A934239D11C
:101B2C001F4B9B691E4A43F4804393611C4B9B697A
:101B3C0003F48043FB60FB68194B9B69184A43F024
:101B4C0004039361164B9B6903F00403BB60BB68F1
:101B5C004FF400733B6102237B610323FB6107F1AC
:101B6C00100319460F4801F053FB4FF480633B619F
:101B7C0000237B610023BB6107F110031946094860
:101B8C0001F046FB00220021252000F0D2FE25208A
:101B9C0000F0EBFE00BF2037BD4680BD0038014091
:101BAC000010024000080140FFF702FF0B480C49EF
:101BBC000C4A002302E0D458C4500433C4188C429D
:101BCC00F9D3094A094C002301E013600432A24204
:101BDC00FBD306F07FFDFEF7B7FF70470000002037
:101BEC0074000020F098000878000020D405002034
:101BFC00FEE7000080B500AF084B1B68074A43F0B6
:101C0C0010031360032000F089FE0F2000F008F889
:101C1C00FFF7B0FD0023184680BD00BF0020024036
:101C2C0080B582B000AF7860124B1A68124B1B78EB
:101C3C0019464FF47A73B3FBF1F3B2FBF3F3184686
:101C4C0000F0A1FE0346002B01D001230EE07B68BF
:101C5C000F2B0AD8002279684FF0FF3000F069FE94
:101C6C00064A7B681360002300E0012318460837FE
:101C7C00BD4680BD000000200800002004000020AC
:101C8C0080B400AF054B1B781A46054B1B681344F8
:101C9C00034A136000BFBD4680BC7047080000209B
:101CAC006004002080B400AF024B1B681846BD4690
:101CBC0080BC70476004002080B584B000AF7860B1
:101CCC00FFF7F0FFB8607B68FB60FB68B3F1FF3F88
:101CDC0005D00A4B1B781A46FB681344FB6000BF07
:101CEC00FFF7E0FF0246BB68D31AFA689A42F7D8AE
:101CFC0000BF00BF1037BD4680BD00BF08000020EC
:101D0C0080B586B000AF78600023FB7500233B6183
:101D1C000023BB600023FB607B68002B01D10123F7
:101D2C00BEE07B689B68002B7B689B6A002B09D10B
:101D3C007B680022DA627B68002283F824207868B2
:101D4C00FEF78EFA786800F0BDFB0346FB757B68E6
:101D5C009B6A03F01003002B40F09980FB7D002B55
:101D6C0040F095807B689B6A23F4885323F0020330
:101D7C0043F002027B689A627B685A687B68DB6975
:101D8C001A437B681B7B5B001343BA681343BB602D
:101D9C007B689B68B3F5807F03D07B689B68012BC5
:101DAC0002D14FF4807300E000233A6913433B6186
:101DBC007B681B7D012B19D17B681B7B002B09D108
:101DCC007B689B69013B5A033B69134343F40063F3
:101DDC003B610BE07B689B6A43F020027B689A6254
:101DEC007B68DB6A43F001027B68DA627B681B6804
:101DFC005B6823F469417B681B683A690A435A6043
:101E0C007B681B689A68284B13407A681268B9681B
:101E1C000B4393607B689B68B3F5807F03D07B6832
:101E2C009B68012B04D17B681B69013B1B05FB6084
:101E3C007B681B68DB6A23F470017B681B68FA689B
:101E4C000A43DA627B681B689A68184B1340BA68BD
:101E5C009A420BD17B680022DA627B689B6A23F082
:101E6C00030343F001027B689A6218E07B689B6A6B
:101E7C0023F0120343F010027B689A627B68DB6AE2
:101E8C0043F001027B68DA620123FB7507E07B6893
:101E9C009B6A43F010027B689A620123FB75FB7D01
:101EAC0018461837BD4680BDFDF7E1FFFE0E1FFF3B
:101EBC0080B586B000AFF860B9607A600023FB751E
:101ECC00FB681B68644A934204D0FB681B68634A36
:101EDC00934206D1604B5B6803F47023002B40F0F7
:101EEC00B380FB6893F82430012B01D10223AEE0C0
:101EFC00FB68012283F82420F86800F089FA034675
:101F0C00FB75FB7D002B40F09A80FB689B6A23F4E9
:101F1C00706323F0010343F48072FB689A62FB68E0
:101F2C001B684E4A934205D14B4B5B6803F47023FC
:101F3C00002B15D1FB689B6A23F48012FB689A6214
:101F4C00FB681B685B6803F48063002B26D0FB687E
:101F5C009B6A23F4405343F48052FB689A621DE061
:101F6C00FB689B6A43F48012FB689A62FB681B68EF
:101F7C00394A934204D0FB681B68384A93420DD10E
:101F8C00354B5B6803F48063002B07D0FB689B6ABE
:101F9C0023F4405343F48052FB689A62FB689B6ABB
:101FAC0003F48053002B06D0FB68DB6A23F0060297
:101FBC00FB68DA6202E0FB680022DA62FB6800224E
:101FCC0083F82420FB681B6A254A9A62FB681B6A0B
:101FDC00244ADA62FB681B6A234A1A63FB681B6893
:101FEC006FF002021A60FB681B689A68FB681B683A
:101FFC0042F480729A60FB68186AFB681B684C3369
:10200C001946BA687B6800F031FDFB681B689B6859
:10201C0003F46023B3F5602F08D1FB681B689A6842
:10202C00FB681B6842F4A0029A600FE0FB681B6817
:10203C009A68FB681B6842F480129A6006E0FB68A1
:10204C00002283F8242001E00123FB75FB7D184658
:10205C001837BD4680BD00BF002401400028014058
:10206C0053250008CF250008EB25000880B584B067
:10207C0000AF78607B681B681B68FB607B681B6823
:10208C005B68BB60BB6803F02003002B3ED0FB6891
:10209C0003F00203002B39D07B689B6A03F010031A
:1020AC00002B05D17B689B6A43F400727B689A62B3
:1020BC007B681B689B6803F46023B3F5602F1DD10C
:1020CC007B681B7B002B19D17B681B685A687B686B
:1020DC001B6822F020025A607B689B6A23F4807292
:1020EC007B689A627B689B6A03F48053002B05D152
:1020FC007B689B6A43F001027B689A62786800F007
:10210C0074F87B681B686FF012021A60BB6803F0EE
:10211C008003002B4DD0FB6803F00403002B48D048
:10212C007B689B6A03F01003002B05D17B689B6ACC
:10213C0043F400527B689A627B681B689B6803F4CB
:10214C00E043B3F5E04F12D07B681B685B6803F487
:10215C008063002B25D17B681B689B6803F460238C
:10216C00B3F5602F1DD17B681B7B002B19D17B68CD
:10217C001B685A687B681B6822F080025A607B6877
:10218C009B6A23F480527B689A627B689B6A03F497
:10219C008073002B05D17B689B6A43F001027B683E
:1021AC009A62786800F0E4FA7B681B686FF00C02A6
:1021BC001A60BB6803F04003002B12D0FB6803F0DD
:1021CC000103002B0DD07B689B6A43F480327B6843
:1021DC009A62786800F012F87B681B686FF0010255
:1021EC001A6000BF1037BD4680BD80B483B000AF0D
:1021FC00786000BF0C37BD4680BC704780B483B09C
:10220C0000AF786000BF0C37BD4680BC704780B40F
:10221C0083B000AF786000BF0C37BD4680BC704700
:10222C0080B485B000AF786039600023FB73002365
:10223C00BB607B6893F82430012B01D10223DCE0D6
:10224C007B68012283F824203B685B68062B1CD832
:10225C007B681B68596B3B685A6813469B00134498
:10226C00053B1F2202FA03F3DB4319403B68186855
:10227C003B685A6813469B001344053B00FA03F273
:10228C007B681B680A435A633CE03B685B680C2B19
:10229C001CD87B681B68196B3B685A6813469B00FB
:1022AC001344233B1F2202FA03F3DB4319403B6820
:1022BC0018683B685A6813469B001344233B00FA8A
:1022CC0003F27B681B680A431A631BE07B681B687C
:1022DC00D96A3B685A6813469B001344413B1F2242
:1022EC0002FA03F3DB4319403B6818683B685A68F1
:1022FC0013469B001344413B00FA03F27B681B68B6
:10230C000A43DA623B681B68092B1CD97B681B6883
:10231C00D9683B681A6813465B0013441E3B0722BE
:10232C0002FA03F3DB4319403B6898683B681A6870
:10233C0013465B0013441E3B00FA03F27B681B68D8
:10234C000A43DA6019E07B681B6819693B681A68F4
:10235C0013465B001344072202FA03F3DB431940D4
:10236C003B6898683B681A6813465B00134400FA94
:10237C0003F27B681B680A431A613B681B68102BCD
:10238C0003D03B681B68112B32D17B681B681D4A3C
:10239C00934225D17B681B689B6803F40003002BD8
:1023AC0026D17B681B689A687B681B6842F4000224
:1023BC009A603B681B68102B1AD1134B1B68134A8D
:1023CC00A2FB03239A0C13469B0013445B00BB60D7
:1023DC0002E0BB68013BBB60BB68002BF9D107E096
:1023EC007B689B6A43F020027B689A620123FB7333
:1023FC007B68002283F82420FB7B18461437BD46EB
:10240C0080BC7047002401400000002083DE1B4389
:10241C0080B584B000AF78600023FB600023BB6004
:10242C007B681B689B6803F00103012B40D07B6821
:10243C001B689A687B681B6842F001029A601F4B0C
:10244C001B681F4AA2FB03239B0CBB6002E0BB680A
:10245C00013BBB60BB68002BF9D1FFF723FCF86094
:10246C001FE0FFF71FFC0246FB68D31A022B18D99A
:10247C007B681B689B6803F00103012B11D07B6800
:10248C009B6A43F010027B689A627B68DB6A43F0BC
:10249C0001027B68DA627B68002283F82420012326
:1024AC0007E07B681B689B6803F00103012BD8D104
:1024BC00002318461037BD4680BD00BF0000002029
:1024CC0083DE1B4380B584B000AF78600023FB60D3
:1024DC007B681B689B6803F00103012B2ED17B6882
:1024EC001B689A687B681B6822F001029A60FFF7F0
:1024FC00D9FBF8601BE0FFF7D5FB0246FB68D31A4B
:10250C00022B14D97B681B689B6803F00103012B19
:10251C000DD17B689B6A43F010027B689A627B68E2
:10252C00DB6A43F001027B68DA62012307E07B6817
:10253C001B689B6803F00103012BDCD000231846B9
:10254C001037BD4680BD80B584B000AF78607B6825
:10255C005B6AFB60FB689B6A03F05003002B27D17E
:10256C00FB689B6A43F40072FB689A62FB681B6809
:10257C009B6803F46023B3F5602F15D1FB681B7BBC
:10258C00002B11D1FB689B6A23F48072FB689A6262
:10259C00FB689B6A03F48053002B05D1FB689B6A94
:1025AC0043F00102FB689A62F868FFF71EFE04E034
:1025BC00FB681B6A1B6B7868984700BF1037BD46D9
:1025CC0080BD80B584B000AF78607B685B6AFB60CF
:1025DC00F868FEF7C1F900BF1037BD4680BD80B565
:1025EC0084B000AF78607B685B6AFB60FB689B6AB9
:1025FC0043F04002FB689A62FB68DB6A43F004021A
:10260C00FB68DA62F868FFF702FE00BF1037BD46C0
:10261C0080BD000090B587B000AF78600023FB75DB
:10262C000023FB607B6893F82430012B01D102233B
:10263C0097E07B68012283F824207868FFF742FF3B
:10264C000346FB757868FFF7E3FE0346FB75FB7DDD
:10265C00002B40F081807B689B6A23F4885323F025
:10266C00020343F002027B689A62404B1C68022012
:10267C0003F0FAFC0346B4FBF3F35B00FB6002E0EF
:10268C00FB68013BFB60FB68002BF9D17B681B6886
:10269C009A687B681B6842F008029A60FFF702FB9D
:1026AC0038611BE0FFF7FEFA02463B69D31A0A2B8E
:1026BC0014D97B681B689B6803F00803002B0DD0B2
:1026CC007B689B6A23F0120343F010027B689A62CA
:1026DC007B68002283F82420012342E07B681B687E
:1026EC009B6803F00803002BDCD17B681B689A689D
:1026FC007B681B6842F004029A60FFF7D3FA3861DA
:10270C001BE0FFF7CFFA02463B69D31A0A2B14D908
:10271C007B681B689B6803F00403002B0DD07B685F
:10272C009B6A23F0120343F010027B689A627B6869
:10273C00002283F82420012313E07B681B689B682C
:10274C0003F00403002BDCD17B689B6A23F00303AA
:10275C0043F001027B689A627B68002283F8242094
:10276C00FB7D18461C37BD4690BD00BF0000002005
:10277C0080B483B000AF786000BF0C37BD4680BC1E
:10278C007047000080B485B000AF78607B6803F0C0
:10279C000703FB600C4BDB68BB60BA684FF6FF03AA
:1027AC001340BB60FB681A02BB68134343F0BF6362
:1027BC0043F40033BB60044ABB68D36000BF1437DA
:1027CC00BD4680BC704700BF00ED00E080B400AF98
:1027DC00044BDB681B0A03F007031846BD4680BC9C
:1027EC00704700BF00ED00E080B483B000AF03463B
:1027FC00FB7197F90730002B0BDBFB7903F01F0201
:10280C00064997F907305B09012000FA02F241F8FA
:10281C00232000BF0C37BD4680BC704700E100E0B0
:10282C0080B483B000AF03463960FB7197F9073071
:10283C00002B0ADB3B68DAB20C4997F9073012011E
:10284C00D2B20B4483F800230AE03B68DAB20849A1
:10285C00FB7903F00F03043B1201D2B20B441A763E
:10286C0000BF0C37BD4680BC704700BF00E100E0E4
:10287C0000ED00E080B489B000AFF860B9607A6018
:10288C00FB6803F00703FB61FB69C3F10703042B2F
:10289C0028BF0423BB61FB690433062B02D9FB69F7
:1028AC00033B00E000237B614FF0FF32BB6902FA6F
:1028BC0003F3DA43BB681A407B699A404FF0FF314F
:1028CC007B6901FA03F3D9437B680B401343184629
:1028DC002437BD4680BC704780B582B000AF7860AD
:1028EC007B68013BB3F1807F01D301230FE00A4ADF
:1028FC007B68013B53600F214FF0FF30FFF790FFD7
:10290C00054B00229A60044B07221A6000231846DC
:10291C000837BD4680BD00BF10E000E080B582B036
:10292C0000AF78607868FFF72DFF00BF0837BD4611
:10293C0080BD80B586B000AF0346B9607A60FB738A
:10294C0000237B61FFF742FF78617A68B968786988
:10295C00FFF790FF024697F90F3011461846FFF724
:10296C005FFF00BF1837BD4680BD80B582B000AF99
:10297C000346FB7197F907301846FFF735FF00BF88
:10298C000837BD4680BD80B582B000AF78607868EE
:10299C00FFF7A2FF034618460837BD4680BD80B539
:1029AC0000AF00F002F800BF80BD80B400AF00BFE4
:1029BC00BD4680BC7047000080B485B000AF786025
:1029CC000023FB607B68002B01D1012343E07B6873
:1029DC001B681A46224B1344224AA2FB03231B09F1
:1029EC009A007B681A647B681F4ADA637B68022250
:1029FC0083F821207B681B681B68FB60FB6823F451
:102A0C007F5323F03003FB607B685A687B689B68BC
:102A1C001A437B68DB681A437B681B691A437B6823
:102A2C005B691A437B689B691A437B68DB691343B8
:102A3C00FA681343FB607B681B68FA681A607B6852
:102A4C0000229A637B68012283F821207B68002294
:102A5C0083F82020002318461437BD4680BC7047ED
:102A6C00F8FFFDBFCDCCCCCC0000024080B586B0C9
:102A7C0000AFF860B9607A603B600023FB75FB68BF
:102A8C0093F82030012B01D102234BE0FB6801228B
:102A9C0083F82020FB6893F82130DBB2012B3AD16C
:102AAC00FB68022283F82120FB6800229A63FB68F2
:102ABC001B681A68FB681B6822F001021A603B68ED
:102ACC007A68B968F86800F0F8F9FB68DB6A002BE3
:102ADC0008D0FB681B681A68FB681B6842F00E0282
:102AEC001A600FE0FB681B681A68FB681B6822F011
:102AFC0004021A60FB681B681A68FB681B6842F0CA
:102B0C000A021A60FB681B681A68FB681B6842F0B3
:102B1C0001021A6005E0FB68002283F820200223E2
:102B2C00FB75FB7D18461837BD4680BD80B485B05B
:102B3C0000AF78600023FB737B6893F82130DBB225
:102B4C00022B08D07B6804229A637B68002283F8EE
:102B5C002020012320E07B681B681A687B681B68B7
:102B6C0022F00E021A607B681B681A687B681B686F
:102B7C0022F001021A607B681A6C7B68DB6B012106
:102B8C0001FA02F25A607B68012283F821207B68EB
:102B9C00002283F82020FB7B18461437BD4680BCEE
:102BAC007047000080B584B000AF78600023FB73E1
:102BBC007B6893F82130DBB2022B05D07B680422B2
:102BCC009A630123FB7351E07B681B681A687B686E
:102BDC001B6822F00E021A607B681B681A687B68FF
:102BEC001B6822F001021A607B681B68224A934220
:102BFC0029D07B681B68214A934222D07B681B68D2
:102C0C001F4A93421AD07B681B681E4A934212D00B
:102C1C007B681B681C4A93420AD07B681B681B4A62
:102C2C00934202D14FF480130EE04FF080730BE00F
:102C3C004FF4803308E04FF4805305E04FF4807379
:102C4C0002E0102300E00123114A53607B6801224B
:102C5C0083F821207B68002283F820207B685B6B43
:102C6C00002B03D07B685B6B78689847FB7B18461E
:102C7C001037BD4680BD00BF080002401C0002405A
:102C8C003000024044000240580002406C000240F8
:102C9C000000024080B584B000AF78607B68DB6BCD
:102CAC001B68FB607B681B681B68BB607B681B6CCC
:102CBC0004229A40FB681340002B4FD0BB6803F0F2
:102CCC000403002B4AD07B681B681B6803F02003AD
:102CDC00002B07D17B681B681A687B681B6822F085
:102CEC0004021A607B681B68664A934229D07B6891
:102CFC001B68654A934222D07B681B68634A9342E7
:102D0C001AD07B681B68624A934212D07B681B689E
:102D1C00604A93420AD07B681B685F4A934202D197
:102D2C004FF480030EE04FF080630BE04FF48023F0
:102D3C0008E04FF4804305E04FF4806302E0402349
:102D4C0000E00423554A53607B68DB6A002B00F0DB
:102D5C0094807B68DB6A786898478EE07B681B6C94
:102D6C0002229A40FB681340002B56D0BB6803F03C
:102D7C000203002B51D07B681B681B6803F02003F7
:102D8C00002B0BD17B681B681A687B681B6822F0D0
:102D9C000A021A607B68012283F821207B681B6879
:102DAC00384A934229D07B681B68374A934222D019
:102DBC007B681B68354A93421AD07B681B68344A7F
:102DCC00934212D07B681B68324A93420AD07B68CC
:102DDC001B68314A934202D14FF400130EE04FF0BE
:102DEC0000730BE04FF4003308E04FF4005305E0A0
:102DFC004FF4007302E0202300E00223274A5360C3
:102E0C007B68002283F820207B689B6A002B34D0DF
:102E1C007B689B6A786898472FE07B681B6C08225C
:102E2C009A40FB681340002B28D0BB6803F00803C2
:102E3C00002B23D07B681B681A687B681B6822F008
:102E4C000E021A607B681A6C7B68DB6B012101FA3D
:102E5C0002F25A607B6801229A637B68012283F834
:102E6C0021207B68002283F820207B681B6B002BC1
:102E7C0004D07B681B6B7868984700BF00BF103785
:102E8C00BD4680BD080002401C00024030000240DC
:102E9C0044000240580002406C0002400000024016
:102EAC0080B483B000AF78607B6893F82130DBB2DC
:102EBC0018460C37BD4680BC704780B485B000AF57
:102ECC00F860B9607A603B60FB681A6CFB68DB6B7E
:102EDC00012101FA02F25A60FB681B683A685A60D9
:102EEC00FB685B68102B08D1FB681B687A689A60DA
:102EFC00FB681B68BA68DA6007E0FB681B68BA6895
:102F0C009A60FB681B687A68DA6000BF1437BD46AC
:102F1C0080BC704780B582B000AF00237B606B4BE8
:102F2C00DB6803F01003002B05D1684BDB6803F062
:102F3C000403002B0ED0664B9B687B60644B4FF0F8
:102F4C00FF329A6000F0F4F8786800F0CCF8604B2F
:102F5C0000221A705D4BDB6803F02003002B00F09D
:102F6C00A0805A4B2022DA60594B1B78DBB2002B25
:102F7C0000F09780564B1B78DBB2012B2DD1544BB4
:102F8C005B68013B524A5360514B5B68002B17D076
:102F9C004F4B9B687B60786800F09CF84C4B9B68AF
:102FAC0003F580637B604A4A7B689360474B1B69DF
:102FBC00464A23F002031361786800F009F970E0C7
:102FCC004FF0FF337B60424A7B689360404B00229A
:102FDC001A70786800F07EF863E03D4B1B78DBB22A
:102FEC00022B0CD1394B1B69384A23F004031361B3
:102FFC00002000F06FF8364B00221A7051E0344B71
:10300C005B68013B324A5360314B5B68002B24D028
:10301C002F4B9B6802332E4A93602D4B9B687B6031
:10302C002B4BD3E904014FF000024FF00003020CCC
:10303C0042EA01420B0C2649C1E90423234B1B69CC
:10304C00224A23F001031361214BD3E9042393B2E9
:10305C001946786800F050F823E01D4B1B78DBB262
:10306C00032B05D11A4B9B68184600F033F811E07E
:10307C00174B1B78DBB2042B06D1154B9B68023B1C
:10308C00184600F027F805E0114B9B68063B1846E4
:10309C0000F020F80E4B4FF0FF329A600C4B0022E0
:1030AC001A700B4B1B78DBB2002B0BD1074B1B6937
:1030BC00064A23F007031361044B1B69034A23F4EC
:1030CC00A053136100BF0837BD4680BD00200240ED
:1030DC006804002080B483B000AF786000BF0C3768
:1030EC00BD4680BC704780B483B000AF786000BF31
:1030FC000C37BD4680BC704780B483B000AF78609D
:10310C000B467B80084B0022DA61084B1B69074A8F
:10311C0043F0010313617B687A881A8000BF0C3777
:10312C00BD4680BC704700BF6804002000200240F0
:10313C0080B483B000AF00237B60234BDB6803F0CB
:10314C001003002B09D0214BDB6943F002031F4A0B
:10315C00D3617B6843F010037B601B4BDB6803F08F
:10316C000403002B09D0194BDB6943F00103174A08
:10317C00D3617B6843F004037B60134BDB6903F082
:10318C000103002B0BD0114BDB6943F004030F4AF6
:10319C00D3610D4BDB690C4A23F00103D3617B68CF
:1031AC0040F20112934206D1074BDB69064A23F029
:1031BC000103D36102E0044A7B68D36000BF0C3783
:1031CC00BD4680BC704700BF002002406804002050
:1031DC0080B483B000AF78600B4B0022DA610B4BEC
:1031EC001B690A4A43F002031361084A7B68536166
:1031FC00064B1B69054A43F04003136100BF0C37B3
:10320C00BD4680BC704700BF68040020002002400F
:10321C0080B48BB000AF7860396000237B620023F0
:10322C003B6269E101227B6A02FA03F3FB613B68B2
:10323C001B68FA691340BB61BA69FB699A4240F09A
:10324C0058813B685B689A4A93425ED0984A934295
:10325C0075D8984A934258D0964A93426FD8964A5A
:10326C00934252D0944A934269D8944A93424CD098
:10327C00924A934263D8924A934246D0904A9342E0
:10328C005DD8122B2AD8122B59D801A252F823F050
:10329C0017330008F13200080333000845330008E7
:1032AC004B3300084B3300084B3300084B330008FA
:1032BC004B3300084B3300084B3300084B330008EA
:1032CC004B3300084B3300084B3300084B330008DA
:1032DC004B330008F93200080D330008794A934249
:1032EC0013D02CE03B68DB683B6229E03B68DB6871
:1032FC0004333B6224E03B68DB6808333B621FE02D
:10330C003B68DB680C333B621AE03B689B68002B24
:10331C0002D104233B6213E03B689B68012B05D16F
:10332C0008233B627B68FA691A6109E008233B6257
:10333C007B68FA695A6103E000233B6200E000BF3E
:10334C00BB69FF2B01D87B6801E07B6804337B6190
:10335C00BB69FF2B02D87B6A9B0002E07B6A083BAF
:10336C009B003B617B691A680F213B6901FA03F3EF
:10337C00DB431A40396A3B6901FA03F31A437B6950
:10338C001A603B685B6803F08053002B00F0B1803F
:10339C004D4B9B694C4A43F0010393614A4B9B692B
:1033AC0003F00103BB60BB68484A7B6A9B0802338D
:1033BC0052F82330FB607B6A03F003039B000F225F
:1033CC0002FA03F3DB43FA681340FB607B68404A64
:1033DC00934213D07B683F4A93420DD07B683E4AA0
:1033EC00934207D07B683D4A934201D1032306E008
:1033FC00042304E0022302E0012300E000237A6AA4
:10340C0002F0030292009340FA681343FB602F49C9
:10341C007B6A9B080233FA6841F823203B685B689F
:10342C0003F48013002B06D02D4B9A682C49BB69F2
:10343C0013438B6006E02A4B9A68BB69DB4328492F
:10344C0013408B603B685B6803F40013002B06D0C1
:10345C00234BDA682249BB691343CB6006E0204B4F
:10346C00DA68BB69DB431E491340CB603B685B6881
:10347C0003F40033002B06D0194B5A681849BB696A
:10348C0013434B6006E0164B5A68BB69DB43144987
:10349C0013404B603B685B6803F48033002B21D0F6
:1034AC000F4B1A680E49BB6913430B6021E000BF38
:1034BC00000032100000311000002210000021101A
:1034CC00000012100000111000100240000001401A
:1034DC0000080140000C01400010014000140140A4
:1034EC00000401400B4B1A68BB69DB4309491340CC
:1034FC000B607B6A01337B623B681A687B6A22FA39
:10350C0003F3002B7FF48EAE00BF00BF2C37BD46FB
:10351C0080BC70470004014080B485B000AF786077
:10352C000B467B807B689A687B881340002B02D00B
:10353C000123FB7301E00023FB73FB7B184614375C
:10354C00BD4680BC704780B483B000AF78600B463A
:10355C007B8013467B707B78002B03D07A887B684A
:10356C001A6103E07B881A047B681A6100BF0C3770
:10357C00BD4680BC704780B485B000AF78600B4608
:10358C007B807B68DB68FB607A88FB6813401A04DD
:10359C00FB68D9437B880B401A437B681A6100BFD8
:1035AC001437BD4680BC704780B584B000AF7860DE
:1035BC007B68002B01D101232BE17B6893F83D3014
:1035CC00DBB2002B06D17B68002283F83C207868A4
:1035DC00FCF7D6FF7B68242283F83D207B681B68B0
:1035EC001A687B681B6822F001021A607B681B68F2
:1035FC001A687B681B6842F400421A607B681B687F
:10360C001A687B681B6822F400421A6002F030FCD6
:10361C00F8607B685B68814A934207D8FB68804AF4
:10362C00934294BF01230023DBB206E0FB687D4A82
:10363C00934294BF01230023DBB2002B01D0012362
:10364C00E7E0FB68784AA2FB03239B0CBB607B681A
:10365C001B685B6823F03F017B681B68BA680A43F0
:10366C005A607B681B681B6A23F03F017B685B68B0
:10367C006A4A934202D8BB68013309E0BB684FF435
:10368C00967202FB03F3694AA2FB03239B090133E5
:10369C007A6812680B4313627B681B68DB6923F43E
:1036AC004F4222F0FF027B685B685C498B4219D861
:1036BC00FB68591E7B685B685B00B1FBF3F3591C1C
:1036CC0040F6FC730B40002B0AD0FB68591E7B683C
:1036DC005B685B00B1FBF3F30133C3F30B0351E005
:1036EC0004234FE07B689B68002B11D1FB68581EAC
:1036FC007B6859680B465B000B44B0FBF3F301335A
:10370C00C3F30B03002B0CBF01230023DBB212E02D
:10371C00FB68581E7B6859680B469B000B4499004C
:10372C000B44B0FBF3F30133C3F30B03002B0CBFBF
:10373C0001230023DBB2002B01D0012322E07B68A4
:10374C009B68002B0ED1FB68581E7B6859680B4692
:10375C005B000B44B0FBF3F30133C3F30B0343F4F3
:10376C0000430FE0FB68581E7B6859680B469B00B2
:10377C000B4499000B44B0FBF3F30133C3F30B037D
:10378C0043F44043796809681343CB617B681B6839
:10379C001B6823F0C0017B68DA697B681B6A1A43DB
:1037AC007B681B680A431A607B681B689B6823F460
:1037BC00034323F0FF037A6811697A68D2681143D6
:1037CC007A6812680B4393607B681B68DB6823F094
:1037DC00FF017B685A697B689B691A437B681B688D
:1037EC000A43DA607B681B681A687B681B6842F0C6
:1037FC0001021A607B6800221A647B68202283F81D
:10380C003D207B6800221A637B68002283F83E20EF
:10381C00002318461037BD4680BD00BFA0860100AE
:10382C007F841E00FF083D0083DE1B43D34D6210D6
:10383C0080B483B000AF78607B681B685B6903F071
:10384C008003802B03D17B681B6800221A6100BFA8
:10385C000C37BD4680BC704780B586B000AFF860B1
:10386C007A601A460B467B8113463B8100233B61F1
:10387C00FB6893F83D30DBB2202B40F00181834B89
:10388C001B68DB08824AA2FB03231A0A13469B001F
:10389C0013449A0013443B613B69013B3B613B6918
:1038AC00002B12D1FB6800221A63FB68202283F8DC
:1038BC003D20FB68002283F83E20FB681B6C43F024
:1038CC002002FB681A640223DBE0FB681B689B691F
:1038DC0003F00203022BDFD0FB6893F83C30012B82
:1038EC0001D10223CDE0FB68012283F83C20FB6868
:1038FC001B681B6803F00103012B07D0FB681B68D6
:10390C001A68FB681B6842F001021A60FB681B68AE
:10391C001A68FB681B6822F400621A60FB6821229B
:10392C0083F83D20FB68102283F83E20FB680022C0
:10393C001A64FB687A685A62FB683A895A85FB6894
:10394C005B8D9AB2FB681A85FB68524ADA627A89F7
:10395C00FB685A64FB681B8D002B73D0FB685B6B98
:10396C00002B22D0FB685B6B4B4A9A62FB685B6B4B
:10397C004A4A1A63FB685B6B0022DA62FB685B6B7A
:10398C0000225A63FB68586BFB685B6A1946FB683C
:10399C001B6810331A46FB681B8DFFF767F803464C
:1039AC00FB75FB7D002B39D113E0FB68202283F8DB
:1039BC003D20FB68002283F83E20FB681B6C43F023
:1039CC008002FB681A64FB68002283F83C20012308
:1039DC0057E0FB68002283F83C20FB681B685A68A0
:1039EC00FB681B6842F440725A60FB681B685A689B
:1039FC00FB681B6842F400625A60FB681B681A681B
:103A0C00FB681B6842F480621A60FB681B681A68CA
:103A1C00FB681B6842F480721A602FE0FB6820225E
:103A2C0083F83D20FB68002283F83E20FB681B6C6A
:103A3C0043F01002FB681A64FB68002283F83C20F8
:103A4C0001231EE0FB681B681A68FB681B6842F4C4
:103A5C0080621A60FB681B681A68FB681B6842F47A
:103A6C0080721A60FB68002283F83C20FB681B689C
:103A7C005A68FB681B6842F4E0625A60002300E05D
:103A8C00022318461837BD4680BD00BF0000002039
:103A9C0089B5F8140000FFFFD552000893540008B4
:103AAC0080B588B000AF78600023BB617B681B6871
:103ABC005B687B617B68DB6A3B617B6893F83E30BB
:103ACC00FB737B6893F83D30BB73FB7B102B03D0EF
:103ADC00FB7B402B40F0C1807B681B689B69BB6102
:103AEC007B681B685B69FB61FB6903F00103002BBE
:103AFC000DD13B69B3F52A0F03D03B69B3F12A4FC3
:103B0C0001D1012300E00023012B00F03281FB697D
:103B1C0003F00103002B0CD07B695B0A03F001035B
:103B2C00002B06D0786801F0BFFD786800F0A6FD88
:103B3C0092E0FB69DB0803F00103002B09D07B69E1
:103B4C005B0A03F00103002B03D0786800F01BFE26
:103B5C0082E0FB695B0803F00103002B09D07B6951
:103B6C005B0A03F00103002B03D0786800F034FEED
:103B7C0072E0BB699B0803F00103002B3BD07B6810
:103B8C001B685B6803F40063B3F5006F00F0F3800F
:103B9C00FB69DB0903F00103002B0FD07B699B0A47
:103BAC0003F00103002B09D0FB699B0803F0010310
:103BBC00002B03D1786800F0FEF94DE0FB699B08FF
:103BCC0003F00103002B00F0D6807B695B0A03F045
:103BDC000103002B00F0CF80BB7B212B03D1786835
:103BEC0000F085FAC7E0FB7B402B40F0C48078687E
:103BFC0000F0F3FABFE07B681B685B6803F40063BA
:103C0C00B3F5006F00F0B780FB699B0903F001036B
:103C1C00002B0FD07B699B0A03F00103002B09D00A
:103C2C00FB699B0803F00103002B03D1786800F0BB
:103C3C006CFB11E0FB699B0803F00103002B00F007
:103C4C009A807B695B0A03F00103002B00F09380E0
:103C5C00786800F022FC8EE08DE07B681B6C002BFA
:103C6C0004D07B681B685B69FB6107E07B681B68A1
:103C7C009B69BB617B681B685B69FB61FB695B08CB
:103C8C0003F00103002B12D07B695B0A03F00103E4
:103C9C00002B0CD07B681B6C002B03D07B681B6843
:103CAC009B69BB61B969786800F0EDFF66E0FB6960
:103CBC001B0903F00103002B09D07B695B0A03F09D
:103CCC000103002B03D0786801F028F856E0BB7B89
:103CDC00212B02D0BB7B292B25D1FB69DB0903F0FF
:103CEC000103002B0FD07B699B0A03F00103002B0F
:103CFC0009D0FB699B0803F00103002B03D1786802
:103D0C0000F005FF39E0FB699B0803F00103002B71
:103D1C0033D07B695B0A03F00103002B2DD078684C
:103D2C0000F032FF29E0FB699B0903F00103002B33
:103D3C000FD07B699B0A03F00103002B09D0FB69B0
:103D4C009B0803F00103002B03D1786800F03CFFC3
:103D5C0014E0FB699B0803F00103002B0ED07B6978
:103D6C005B0A03F00103002B08D0786800F06AFFAF
:103D7C0004E000BF02E000BF00E000BF2037BD46FA
:103D8C0080BD80B58AB000AF78607B681B685B69CA
:103D9C003B627B681B685B68FB6100237B627B6812
:103DAC0093F83E30FB763B6A1B0A03F00103002BB1
:103DBC0016D0FB691B0A03F00103002B10D07B6AA1
:103DCC0043F001037B627B681B686FF480725A615D
:103DDC007B681B681A687B681B6842F400421A6097
:103DEC003B6A5B0A03F00103002B0ED0FB691B0A34
:103DFC0003F00103002B08D07B6A43F002037B62C3
:103E0C007B681B686FF400725A613B6A9B0A03F073
:103E1C000103002B3FD0FB691B0A03F00103002BAD
:103E2C0039D0FB7EBB767B685B8D9BB27B617B68FC
:103E3C0093F83D30FB747B681B6BFB60BB7E202BC7
:103E4C0012D17B69002B0FD1FB7C212B08D0FB7C82
:103E5C00292B05D0FB7C282B06D1FB68212B03D109
:103E6C00786801F08BF816E07B681B686FF4806251
:103E7C005A617B6A43F004037B62FB7E102B02D0F9
:103E8C00FB7E402B07D17B681B681A687B681B681C
:103E9C0042F400721A603B6ADB0A03F00103002B48
:103EAC000ED0FB691B0A03F00103002B08D07B6AC0
:103EBC0043F008037B627B681B686FF400625A61F5
:103ECC007B6A002B08D07B681A6C7B6A1A437B6870
:103EDC001A64786801F0C6F800BF2837BD4680BD6B
:103EEC0080B483B000AF786000BF0C37BD4680BC97
:103EFC00704780B483B000AF786000BF0C37BD460C
:103F0C0080BC704780B483B000AF786000BF0C37C2
:103F1C00BD4680BC704780B483B000AF786000BFF2
:103F2C000C37BD4680BC704780B483B000AF78605E
:103F3C000B46FB7013463B8000BF0C37BD4680BC64
:103F4C00704780B483B000AF786000BF0C37BD46BB
:103F5C0080BC704780B483B000AF786000BF0C3772
:103F6C00BD4680BC704780B483B000AF786000BFA2
:103F7C000C37BD4680BC704780B483B000AF78600E
:103F8C0000BF0C37BD4680BC704780B483B000AF17
:103F9C00786000BF0C37BD4680BC704780B483B0DE
:103FAC0000AF78607B6893F83D30DBB218460C3775
:103FBC00BD4680BC704780B584B000AF78607B682C
:103FCC0093F83D30FB737B6893F83E30BB737B6892
:103FDC00DB6ABB607B681B8D002B50D1FB7B212BDC
:103FEC004DD1BB68082B1DD0BB68202B1AD0BB68E9
:103FFC0013F5803F16D07B681B685A687B681B687A
:10400C0022F4E0625A607B6811221A637B680022FA
:10401C0083F83E207B68202283F83D207868FFF7E8
:10402C005FFF60E07B681B685A687B681B6822F442
:10403C00E0625A607B681B681A687B681B6842F4F4
:10404C0000721A607B6800221A637B68202283F856
:10405C003D207B6893F83E30DBB2402B07D17B6868
:10406C00002283F83E207868FFF774FF3BE07B6802
:10407C00002283F83E207868FFF732FF33E0FB7BA9
:10408C00212B05D0BB7B402B2DD1FB7B222B2AD1A6
:10409C007B685B8D9BB2002B08D17B681B685A68D0
:1040AC007B681B6822F480625A601CE07B6893F882
:1040BC003E30DBB2402B03D1786800F08EF812E072
:1040CC007B685B6A1A787B681B681A617B685B6A21
:1040DC005A1C7B685A627B685B8D9BB2013B9AB21F
:1040EC007B685A85FFE700BF1037BD4680BD80B5A1
:1040FC0084B000AF78607B68DB6AFB607B6893F808
:10410C003D30DBB2212B64D17B685B8D9BB2002BE5
:10411C0012D07B685B6A1A787B681B681A617B68B3
:10412C005B6A5A1C7B685A627B685B8D9BB2013B55
:10413C009AB27B685A854CE0FB68082B1DD0FB6853
:10414C00202B1AD0FB6813F5803F16D07B681B68B8
:10415C005A687B681B6822F4E0625A607B68112203
:10416C001A637B68002283F83E207B68202283F848
:10417C003D207868FFF7B4FE2BE07B681B685A681B
:10418C007B681B6822F4E0625A607B681B681A68C3
:10419C007B681B6842F400721A607B6800221A6309
:1041AC007B68202283F83D207B6893F83E30DBB29D
:1041BC00402B07D17B68002283F83E207868FFF7FC
:1041CC00C9FE06E07B68002283F83E207868FFF782
:1041DC0087FE00BF1037BD4680BD80B584B000AFF0
:1041EC0078607B6893F83D30FB737B681B6D002B0C
:1041FC001DD17B68DB6C012B0BD17B689B6CDAB21D
:10420C007B681B681A617B681B6D9A1C7B681A653E
:10421C0077E07B689B6C9BB21B12DAB27B681B68E5
:10422C001A617B681B6D5A1C7B681A6569E07B6898
:10423C001B6D012B0BD17B689B6CDAB27B681B6806
:10424C001A617B681B6D5A1C7B681A6559E07B6888
:10425C001B6D022B52D1FB7B222B0DD17B681B6873
:10426C001A687B681B6842F480721A607B681B6D4D
:10427C005A1C7B681A6544E07B685B8D9BB2002BF3
:10428C0015D0FB7B212B12D17B685B6A1A787B687B
:10429C001B681A617B685B6A5A1C7B685A627B6874
:1042AC005B8D9BB2013B9AB27B685A8529E07B6897
:1042BC005B8D9BB2002B24D1FB7B212B21D17B6806
:1042CC001B685A687B681B6822F4E0625A607B6842
:1042DC001B681A687B681B6842F400721A607B6862
:1042EC0000221A637B68202283F83D207B68002221
:1042FC0083F83E207868FFF72DFE02E07868FFF720
:10430C0097FA00BF1037BD4680BD80B584B000AFB2
:10431C0078607B6893F83D30DBB2222B40F0B9809B
:10432C007B68DB6AFB607B685B8D9BB2BB60BB68A8
:10433C00032B21D97B681B681A697B685B6AD2B234
:10434C001A707B685B6A5A1C7B685A627B685B8D4F
:10435C009BB2013B9AB27B685A857B685B8D9BB2A2
:10436C00032B40F096807B681B685A687B681B683F
:10437C0022F480625A608CE07B68DB6A022B7FD06F
:10438C00BB68012B02D0BB68002B79D1786801F097
:10439C0059F90346002B4CD17B681B681A687B6863
:1043AC001B6822F480621A607B681B685A687B6801
:1043BC001B6822F4E0625A607B681B681A697B6890
:1043CC005B6AD2B21A707B685B6A5A1C7B685A6251
:1043DC007B685B8D9BB2013B9AB27B685A857B688C
:1043EC00202283F83D207B6893F83E30DBB2402BD3
:1043FC000AD17B68002283F83E207B6800221A6376
:10440C007868FFF7B0FD44E07B68002283F83E201B
:10441C00FB68082B02D0FB68202B03D17B680022A1
:10442C001A6302E07B6812221A637868FFF761FD59
:10443C002FE07B681B685A687B681B6822F4E0627B
:10444C005A607B681B681A697B685B6AD2B21A7007
:10445C007B685B6A5A1C7B685A627B685B8D9BB27B
:10446C00013B9AB27B685A857B68202283F83D20F9
:10447C007B68002283F83E207868FFF77DFD08E01A
:10448C007B681B685A687B681B6822F480625A60E0
:10449C00FFE700BF1037BD4680BD80B584B000AFCC
:1044AC0078607B68DB6AFB607B685B8D9BB2042B5E
:1044BC001BD17B681B685A687B681B6822F480627E
:1044CC005A607B681B681A697B685B6AD2B21A7087
:1044DC007B685B6A5A1C7B685A627B685B8D9BB2FB
:1044EC00013B9AB27B685A85C4E07B685B8D9BB2BA
:1044FC00032B29D17B681B685A687B681B6822F4E4
:10450C0080625A60FB68042B0AD0FB68022B07D030
:10451C007B681B681A687B681B6822F480621A60CF
:10452C007B681B681A697B685B6AD2B21A707B68FD
:10453C005B6A5A1C7B685A627B685B8D9BB2013B41
:10454C009AB27B685A8595E07B685B8D9BB2022B97
:10455C007DD1FB68012B02D0FB68102B08D17B6846
:10456C001B681A687B681B6822F480621A6016E06C
:10457C00FB68042B02D0FB68022B08D17B681B68FC
:10458C001A687B681B6842F480621A6007E07B68DB
:10459C001B681A687B681B6842F400721A607B689F
:1045AC001B681A697B685B6AD2B21A707B685B6A9B
:1045BC005A1C7B685A627B685B8D9BB2013B9AB23A
:1045CC007B685A857B681B681A697B685B6AD2B208
:1045DC001A707B685B6A5A1C7B685A627B685B8DBD
:1045EC009BB2013B9AB27B685A857B681B685A6800
:1045FC007B681B6822F440725A607B68202283F827
:10460C003D207B6893F83E30DBB2402B0AD17B68AF
:10461C00002283F83E207B6800221A637868FFF73B
:10462C00A2FC27E07B68002283F83E20FB68082B65
:10463C0002D0FB68202B03D17B6800221A6302E0B6
:10464C007B6812221A637868FFF753FC12E07B68D0
:10465C001B681A697B685B6AD2B21A707B685B6AEA
:10466C005A1C7B685A627B685B8D9BB2013B9AB289
:10467C007B685A8500BF1037BD4680BD80B483B0BF
:10468C0000AF78607B6893F83E30DBB2402B17D1DB
:10469C007B681B6D002B09D17B685B6CDBB21A4607
:1046AC007B681B6802F0FE021A6167E07B685B6C3A
:1046BC00DBB243F00103DAB27B681B681A615DE080
:1046CC007B681B69B3F5804F33D17B6893F83D3021
:1046DC00DBB2212B09D17B685B6CDBB21A467B68A1
:1046EC001B6802F0FE021A6108E07B685B6CDBB2AF
:1046FC0043F00103DAB27B681B681A617B685B6B61
:10470C00002B04D07B685B6B9B6A002B08D17B6809
:10471C009B6B002B32D07B689B6B9B6A002B2DD044
:10472C007B681B685A687B681B6842F400625A609D
:10473C0024E07B681B6D002B0ED17B685B6C9BB2FD
:10474C00DB11DBB203F00603DBB263F00F03DAB26A
:10475C007B681B681A6111E07B681B6D012B0DD106
:10476C007B685B6C9BB2DB11DBB203F00603DBB244
:10477C0063F00E03DAB27B681B681A6100BF0C375A
:10478C00BD4680BC704780B483B000AF78607B6856
:10479C005B6CDAB27B681B681A617B685B6B002B05
:1047AC0004D07B685B6B9B6A002B08D17B689B6B8E
:1047BC00002B0CD07B689B6B9B6A002B07D07B6813
:1047CC001B685A687B681B6842F400625A6000BF21
:1047DC000C37BD4680BC704780B491B000AF786098
:1047EC007B6893F83E3087F83F307B68DB6ABB63AD
:1047FC007B681B6B7B637B6893F83D30DBB2222BB1
:10480C0040F074817B681B6D002B0FD197F83F3003
:10481C00402B0BD100233B637B681B685B693B63BC
:10482C007B681B689B693B633B6B6BE17B681B6D17
:10483C00002B1DD17B681B69B3F5404F18D10023A9
:10484C00FB627B681B685B69FB627B681B689B690E
:10485C00FB62FB6A7B681B681A687B681B6842F406
:10486C0080721A607B681B6D5A1C7B681A6549E163
:10487C007B685B8D9BB2002B13D10023BB627B68E2
:10488C001B685B69BB627B681B689B69BB62BB6A0C
:10489C007B681B681A687B681B6842F400721A609C
:1048AC0020E17B685B8D9BB2012B40F08A80BB6B57
:1048BC0013F5803F37D17B681B681A687B681B68CF
:1048CC0022F480621A607B681B685B6803F40063E7
:1048DC00B3F5006F13D17B681B681A687B681B6883
:1048EC0022F480621A6000237B627B681B685B6920
:1048FC007B627B681B689B697B627B6AF2E00023AE
:10490C003B627B681B685B693B627B681B689B69CD
:10491C003B623B6A7B681B681A687B681B6842F4C5
:10492C0000721A60DEE0BB6B082B2ED0BB6B202B09
:10493C002BD07B6B122B02D1BB6B012B25D1BB6B0C
:10494C00042B0ED0BB6B022B0BD0BB6B102B08D0E7
:10495C007B681B681A687B681B6822F480621A608B
:10496C0007E07B681B681A687B681B6842F48062EE
:10497C001A600023FB617B681B685B69FB617B68C9
:10498C001B689B69FB61FB69ACE07B681B681A6860
:10499C007B681B6822F480621A600023BB617B6811
:1049AC001B685B69BB617B681B689B69BB61BB69EE
:1049BC007B681B681A687B681B6842F400721A607B
:1049CC0090E07B685B8D9BB2022B58D1BB6B042BA8
:1049DC0021D0BB6B022B1ED0BB6B102B1BD07B686A
:1049EC001B681A687B681B6842F400621A6000231B
:1049FC007B617B681B685B697B617B681B689B695F
:104A0C007B617B697B681B681A687B681B6822F476
:104A1C0080621A6012E07B681B681A687B681B68EE
:104A2C0042F480621A6000233B617B681B685B69FF
:104A3C003B617B681B689B693B613B697B681B68BE
:104A4C005B6803F40063B3F5006F4BD1BB6B13F5DC
:104A5C00803F0BD0BB6B012B08D0BB6B082B05D058
:104A6C00BB6B102B02D0BB6B202B3BD17B681B6824
:104A7C005A687B681B6842F480525A6032E07B684B
:104A8C001B681A687B681B6842F480621A607B683A
:104A9C001B685B6803F40063B3F5006F17D1BB6B45
:104AAC0013F5803F0BD0BB6B012B08D0BB6B082BD5
:104ABC0005D0BB6B102B02D0BB6B202B07D17B68B6
:104ACC001B685A687B681B6842F480525A6000234A
:104ADC00FB607B681B685B69FB607B681B689B6980
:104AEC00FB60FB687B6800221A650BE00023BB604F
:104AFC007B681B685B69BB607B681B689B69BB60E0
:104B0C00BB68FFE700BF4437BD4680BC704780B52B
:104B1C0084B000AF78607B6893F83D30FB737B68A2
:104B2C005B8D9BB2002B2BD07B685B6A1A787B6801
:104B3C001B681A617B685B6A5A1C7B685A627B68CB
:104B4C005B8D9BB2013B9AB27B685A857B685B8D0F
:104B5C009BB2002B14D1FB7B292B11D17B681B68DA
:104B6C005A687B681B6822F480625A607B68212239
:104B7C001A637B68282283F83D207868FFF7C2F916
:104B8C0000BF1037BD4680BD80B483B000AF7860E5
:104B9C007B685B8D9BB2002B11D07B685B6A1A78AB
:104BAC007B681B681A617B685B6A5A1C7B685A625B
:104BBC007B685B8D9BB2013B9AB27B685A8500BFC8
:104BCC000C37BD4680BC704780B584B000AF7860B0
:104BDC007B6893F83D30FB737B685B8D9BB2002B3D
:104BEC002CD07B681B681A697B685B6AD2B21A701E
:104BFC007B685B6A5A1C7B685A627B685B8D9BB2D4
:104C0C00013B9AB27B685A857B685B8D9BB2002B0B
:104C1C0014D1FB7B2A2B11D17B681B685A687B68EB
:104C2C001B6822F480625A607B6822221A637B68BC
:104C3C00282283F83D207868FFF76DF900BF103704
:104C4C00BD4680BD80B483B000AF78607B685B8D5F
:104C5C009BB2002B12D07B681B681A697B685B6A5D
:104C6C00D2B21A707B685B6A5A1C7B685A627B688A
:104C7C005B8D9BB2013B9AB27B685A8500BF0C37A7
:104C8C00BD4680BC704780B584B000AF7860396099
:104C9C000023FB737B6893F83D30DBB203F02803F1
:104CAC00282B27D17B681B685A687B681B6822F409
:104CBC0080625A603B689B0803F00103002B01D112
:104CCC000123FB733B68DB0903F00103002B03D1C9
:104CDC007B68DB68BB8102E07B689B69BB817B687E
:104CEC00002283F83C20BA89FB7B19467868FFF7D1
:104CFC001BF90EE00023BB607B681B685B69BB6023
:104D0C007B681B689B69BB60BB687B68002283F86F
:104D1C003C2000BF1037BD4680BD000080B584B07C
:104D2C0000AF78607B6893F83D30FB737B681B6841
:104D3C005A687B681B6822F4E0625A600023BB60EF
:104D4C007B681B685B69BB607B681B681A687B6847
:104D5C001B6842F001021A60BB687B681B681A680A
:104D6C007B681B6822F480621A607B681B685B6836
:104D7C0003F40063B3F5006F72D1FB7B222B02D0DE
:104D8C00FB7B2A2B35D17B689B6B1B685B689AB2CB
:104D9C007B685A857B685B8D9BB2002B05D07B684A
:104DAC001B6C43F004027B681A647B681B685A68AE
:104DBC007B681B6822F400625A607B689B6B184608
:104DCC00FEF76EF80346012B49D07B689B6B694A52
:104DDC005A637B689B6B1846FDF7E4FE0346002B79
:104DEC003DD07B689B6B5B6B7A68926B10469847E7
:104DFC0035E07B685B6B1B685B689AB27B685A8595
:104E0C007B685B8D9BB2002B05D07B681B6C43F0E1
:104E1C0004027B681A647B681B685A687B681B6891
:104E2C0022F400625A607B685B6B1846FEF738F818
:104E3C000346012B14D07B685B6B4E4A5A637B682C
:104E4C005B6B1846FDF7AEFE0346002B08D07B6863
:104E5C005B6B5B6B7A68526B1046984700E000BF47
:104E6C007B685B8D9BB2002B3ED07B681B685B69BB
:104E7C0003F00403042B12D17B681B681A697B684E
:104E8C005B6AD2B21A707B685B6A5A1C7B685A6286
:104E9C007B685B8D9BB2013B9AB27B685A857B68C1
:104EAC001B685B6903F04003402B12D17B681B68C5
:104EBC001A697B685B6AD2B21A707B685B6A5A1C8F
:104ECC007B685A627B685B8D9BB2013B9AB27B68B4
:104EDC005A857B685B8D9BB2002B05D07B681B6C65
:104EEC0043F004027B681A647B681B6C002B03D0B4
:104EFC00786800F0B7F839E0FB7B2A2B09D17B6886
:104F0C0000221A637B68282283F83D207868FFF71B
:104F1C0002F87B6893F83D30DBB2282B11D17B680B
:104F2C00154ADA627B6800221A637B68202283F8B8
:104F3C003D207B68002283F83E207868FFF701F85B
:104F4C0014E07B681B6B222B02D0FB7B222B0DD138
:104F5C007B6800221A637B68202283F83D207B68E3
:104F6C00002283F83E207868FEF7D5FF00BF10378B
:104F7C00BD4680BD015500080000FFFF80B584B020
:104F8C0000AF78607B6893F83D30FB737B68DB6A1D
:104F9C00BB60BB68082B02D0BB68202B29D1FB7BE4
:104FAC00282B26D17B682E4ADA627B681B685A68EC
:104FBC007B681B6822F4E0625A607B681B686FF4A4
:104FCC0080625A617B681B681A687B681B6822F4D4
:104FDC0080621A607B6800221A637B68202283F847
:104FEC003D207B68002283F83E207868FEF7A9FFFD
:104FFC0031E0FB7B212B29D17B68194ADA627B6873
:10500C0021221A637B68202283F83D207B680022D2
:10501C0083F83E207B681B685A687B681B6822F407
:10502C00E0625A607B681B686FF480625A617B682F
:10503C001B681A687B681B6822F480621A607868A7
:10504C00FEF7F6FB7868FEF75DFF04E07B681B68F3
:10505C006FF480625A6100BF1037BD4680BD00BF3F
:10506C000000FFFF80B584B000AF78607B6893F8D8
:10507C003D30FB737B6893F83E30BB73BB7B102BCE
:10508C0002D0BB7B402B0AD1FB7B222B07D17B6848
:10509C001B681A687B681B6822F400621A60FB7B31
:1050AC0003F02803282B07D17B6800221A637B6846
:1050BC00282283F83D2015E07B681B685B6803F4AD
:1050CC000063B3F5006F0AD0FB7B602B07D07B68C5
:1050DC00202283F83D207B68002283F83E207B68E9
:1050EC0000221A637B681B685B6803F40063B3F5EA
:1050FC00006F62D17B681B685A687B681B6822F45E
:10510C0000625A607B685B6B93F82130DBB2012B39
:10511C0020D07B685B6B6A4A5A637B685B6B184672
:10512C00FDF740FD0346002B00F089807B681B686F
:10513C001A687B681B6822F001021A607B682022C7
:10514C0083F83D207B685B6B5B6B7A68526B104617
:10515C00984774E07B689B6B594A5A637B689B6BDE
:10516C001846FDF71FFD0346002B68D07B681B68B3
:10517C005B6903F04003402B0BD17B681B681A69F9
:10518C007B685B6AD2B21A707B685B6A5A1C7B685C
:10519C005A627B681B681A687B681B6822F00102E4
:1051AC001A607B68202283F83D207B689B6B5B6BCD
:1051BC007A68926B1046984741E07B6893F83D30D3
:1051CC00DBB2602B25D17B68202283F83D207B68E5
:1051DC0000221A647B681B685B6903F04003402B58
:1051EC000BD17B681B681A697B685B6AD2B21A7038
:1051FC007B685B6A5A1C7B685A627B681B681A68FE
:10520C007B681B6822F001021A607868FEF7BDFE0D
:10521C0015E07B681B685B6903F04003402B0BD1E6
:10522C007B681B681A697B685B6AD2B21A707B68F0
:10523C005B6A5A1C7B685A627868FEF79DFE7B6835
:10524C001B6CBB60BB6803F00103002B0ED1BB6869
:10525C0003F00203002B09D1BB6803F00403002BFD
:10526C0004D1BB6803F00803002B07D07B681B68D4
:10527C005A687B681B6822F4E0625A607B6893F87A
:10528C003D30FB737B681B6C03F00403042B13D1C0
:10529C00FB7B282B10D17B680A4ADA627B680022E0
:1052AC001A637B68202283F83D207B68002283F8F8
:1052BC003E207868FEF745FE00BF1037BD4680BD26
:1052CC00015500080000FFFF80B586B000AF786084
:1052DC007B685B6A7B617B6993F83D30FB747B690F
:1052EC0093F83E30BB747B69DB6AFB607B691B689F
:1052FC005A687B691B6822F440725A607B695B6B4D
:10530C00002B03D07B695B6B00229A627B699B6BE1
:10531C00002B03D07B699B6B00229A62FB7C03F011
:10532C002103212B07D0FB7C03F02203222B31D14C
:10533C00BB7C202B2ED17B691B685A687B691B6850
:10534C0022F400625A607B6900225A85FB7C292B6F
:10535C000AD17B6921221A637B69282283F83D20BC
:10536C007869FEF7CFFD0CE0FB7C2A2B09D17B6919
:10537C0022221A637B69282283F83D207869FEF784
:10538C00CAFD7B691B685A687B691B6842F44072D2
:10539C005A6074E07B6993F83E30DBB2002B6ED020
:1053AC007B695B8D9BB2012B07D17B691B681A68EB
:1053BC007B691B6822F480621A607B691B685A68DF
:1053CC007B691B6822F440725A60FB6813F5803FBE
:1053DC0009D0FB68082B06D0FB68B3F12A4F02D02A
:1053EC00FB68202B07D17B691B681A687B691B68DB
:1053FC0042F400721A607B691B685A687B691B68EF
:10540C0022F480525A607B691B685A687B691B685E
:10541C0022F400625A607B6900225A857B691B6CFE
:10542C00002B03D07869FEF7A7FD28E07B692022CA
:10543C0083F83D207B6993F83E30DBB2402B0AD1D8
:10544C007B69002283F83E207B6900221A6378690D
:10545C00FEF789FD13E07B69002283F83E20FB6890
:10546C00082B02D0FB68202B03D17B6900221A6326
:10547C0002E07B6912221A637869FEF73AFD00BFDD
:10548C001837BD4680BD80B584B000AF78607B68AE
:10549C005B6AFB60FB685B6B002B03D0FB685B6B90
:1054AC0000229A62FB689B6B002B03D0FB689B6B02
:1054BC0000229A62FB681B681A68FB681B6822F45E
:1054CC0080621A60FB6800225A85FB68202283F8F0
:1054DC003D20FB68002283F83E20FB681B6C43F0E8
:1054EC001002FB681A64F868FEF746FD00BF10371F
:1054FC00BD4680BD80B586B000AF78600023FB60F0
:10550C007B685B6A7B617B6993F83D30FB744B4B2A
:10551C001B68DB084A4AA2FB03231A0A13469B00AA
:10552C001344DA00D31AFB60FB68002B06D17B69AD
:10553C001B6C43F020027B691A640AE0FB68013B98
:10554C00FB607B691B681B6803F40073B3F5007F79
:10555C00EAD07B695B6B002B03D07B695B6B002211
:10556C009A627B699B6B002B03D07B699B6B00223F
:10557C009A627B691B681A687B691B6822F48062DB
:10558C001A607B6900225A857B695B6B002B03D008
:10559C007B695B6B00225A637B699B6B002B03D08E
:1055AC007B699B6B00225A637B691B681A687B6959
:1055BC001B6822F001021A607B6993F83D30DBB264
:1055CC00602B0ED17B69202283F83D207B69002261
:1055DC0083F83E207B6900221A647869FEF7D5FCBB
:1055EC0027E0FB7C03F02803282B17D17B691B6871
:1055FC001A687B691B6842F001021A607B691B68A0
:10560C001A687B691B6842F480621A607B6900220D
:10561C001A637B69282283F83D2007E07B692022EE
:10562C0083F83D207B69002283F83E207869FEF7E1
:10563C00A3FC00BF1837BD4680BD00BF0000002092
:10564C0089B5F81480B485B000AF78600023FB6096
:10565C00134B1B68DB08134AA2FB03231A0A1346DD
:10566C009B001344FB60FB68013BFB60FB68002B59
:10567C0007D17B681B6C43F020027B681A64012302
:10568C0008E07B681B681B6803F40073B3F5007FAC
:10569C00E9D0002318461437BD4680BC704700BFC4
:1056AC000000002089B5F81480B483B000AF786096
:1056BC007B68DB6AB3F52A0F03D17B680122DA62BF
:1056CC0007E07B68DB6AB3F12A4F02D17B680822C2
:1056DC00DA6200BF0C37BD4680BC704780B586B01F
:1056EC0000AF78607B68002B01D1012372E27B68EC
:1056FC001B6803F00103002B00F08780924B5B6862
:10570C0003F00C03042B0CD08F4B5B6803F00C03E1
:10571C00082B12D18C4B5B6803F48033B3F5803FBC
:10572C000BD1894B1B6803F40033002B6CD07B68C6
:10573C005B68002B68D101234CE27B685B68B3F596
:10574C00803F06D1804B1B687F4A43F48033136043
:10575C002EE07B685B68002B0CD17B4B1B687A4A74
:10576C0023F480331360784B1B68774A23F480232F
:10577C0013601DE07B685B68B3F5A02F0CD1724BF6
:10578C001B68714A43F4802313606F4B1B686E4A8D
:10579C0043F4803313600BE06B4B1B686A4A23F4B1
:1057AC0080331360684B1B68674A23F480231360B3
:1057BC007B685B68002B13D0FCF774FA386108E047
:1057CC00FCF770FA02463B69D31A642B01D9032308
:1057DC0000E25D4B1B6803F40033002BF0D014E0A7
:1057EC00FCF760FA386108E0FCF75CFA02463B69AA
:1057FC00D31A642B01D90323ECE1534B1B6803F43C
:10580C000033002BF0D100E000BF7B681B6803F075
:10581C000203002B63D04C4B5B6803F00C03002B92
:10582C000BD0494B5B6803F00C03082B1CD1464B87
:10583C005B6803F48033002B16D1434B1B6803F0D9
:10584C000203002B05D07B681B69012B01D00123BF
:10585C00C0E13D4B1B6823F0F8027B685B69DB0001
:10586C00394913430B603AE07B681B69002B20D04D
:10587C00364B01221A60FCF715FA386108E0FCF788
:10588C0011FA02463B69D31A022B01D90323A1E179
:10589C002D4B1B6803F00203002BF0D02A4B1B6826
:1058AC0023F0F8027B685B69DB00274913430B602C
:1058BC0015E0264B00221A60FCF7F4F9386108E079
:1058CC00FCF7F0F902463B69D31A022B01D90323EA
:1058DC0080E11D4B1B6803F00203002BF0D17B68A9
:1058EC001B6803F00803002B3AD07B689B69002BE4
:1058FC0019D0174B01221A60FCF7D4F9386108E073
:10590C00FCF7D0F902463B69D31A022B01D90323C9
:10591C0060E10D4B5B6A03F00203002BF0D0012019
:10592C0000F0CEFA1CE00A4B00221A60FCF7BAF920
:10593C0038610FE0FCF7B6F902463B69D31A022B2B
:10594C0008D9032346E100BF001002400000424288
:10595C0080044242924B5B6A03F00203002BE9D1B4
:10596C007B681B6803F00403002B00F0A680002367
:10597C00FB758B4BDB6903F08053002B0DD1884BEF
:10598C00DB69874A43F08053D361854BDB6903F0B5
:10599C008053BB60BB680123FB75824B1B6803F40F
:1059AC008073002B18D17F4B1B687E4A43F48073A5
:1059BC001360FCF777F9386108E0FCF773F90246DD
:1059CC003B69D31A642B01D9032303E1754B1B6884
:1059DC0003F48073002BF0D07B68DB68012B06D1BD
:1059EC006F4B1B6A6E4A43F0010313622DE07B6818
:1059FC00DB68002B0CD16A4B1B6A694A23F001034C
:105A0C001362674B1B6A664A23F0040313621CE0A3
:105A1C007B68DB68052B0CD1614B1B6A604A43F039
:105A2C00040313625E4B1B6A5D4A43F0010313626D
:105A3C000BE05B4B1B6A5A4A23F001031362584B71
:105A4C001B6A574A23F0040313627B68DB68002B44
:105A5C0015D0FCF727F938610AE0FCF723F9024668
:105A6C003B69D31A41F28832934201D90323B1E046
:105A7C004B4B1B6A03F00203002BEED014E0FCF737
:105A8C0011F938610AE0FCF70DF902463B69D31AAB
:105A9C0041F28832934201D903239BE0404B1B6AAD
:105AAC0003F00203002BEED1FB7D012B05D13C4B07
:105ABC00DB693B4A23F08053D3617B68DB69002BA5
:105ACC0000F08780364B5B6803F00C03082B61D029
